{
  "_format": "hh-sol-artifact-1",
  "contractName": "DocumentManagement",
  "sourceName": "contracts/DocumentManagement.sol",
  "abi": [
    {
      "anonymous": false,
      "inputs": [
        {
          "indexed": true,
          "internalType": "address",
          "name": "owner",
          "type": "address"
        },
        {
          "indexed": false,
          "internalType": "string",
          "name": "cid",
          "type": "string"
        },
        {
          "indexed": false,
          "internalType": "string",
          "name": "referenceId",
          "type": "string"
        }
      ],
      "name": "DocumentIssued",
      "type": "event"
    },
    {
      "inputs": [
        {
          "internalType": "address",
          "name": "",
          "type": "address"
        },
        {
          "internalType": "uint256",
          "name": "",
          "type": "uint256"
        }
      ],
      "name": "documentsByOwner",
      "outputs": [
        {
          "internalType": "string",
          "name": "cid",
          "type": "string"
        },
        {
          "internalType": "string",
          "name": "referenceId",
          "type": "string"
        }
      ],
      "stateMutability": "view",
      "type": "function"
    },
    {
      "inputs": [
        {
          "internalType": "address",
          "name": "user",
          "type": "address"
        }
      ],
      "name": "getUserDocuments",
      "outputs": [
        {
          "components": [
            {
              "internalType": "string",
              "name": "cid",
              "type": "string"
            },
            {
              "internalType": "string",
              "name": "referenceId",
              "type": "string"
            }
          ],
          "internalType": "struct DocumentManagement.Document[]",
          "name": "",
          "type": "tuple[]"
        }
      ],
      "stateMutability": "view",
      "type": "function"
    },
    {
      "inputs": [
        {
          "internalType": "address",
          "name": "owner",
          "type": "address"
        },
        {
          "internalType": "string",
          "name": "cid",
          "type": "string"
        },
        {
          "internalType": "string",
          "name": "referenceId",
          "type": "string"
        }
      ],
      "name": "issueDocument",
      "outputs": [],
      "stateMutability": "nonpayable",
      "type": "function"
    }
  ],
  "bytecode": "0x608060405234801561001057600080fd5b50610d60806100206000396000f3fe608060405234801561001057600080fd5b50600436106100415760003560e01c80630de35f551461004657806390a4b16214610062578063df6cc24914610092575b600080fd5b610060600480360381019061005b9190610635565b6100c3565b005b61007c600480360381019061007791906106ca565b610256565b604051610089919061088d565b60405180910390f35b6100ac60048036038101906100a791906108e5565b610417565b6040516100ba92919061096f565b60405180910390f35b6000604051806040016040528086868080601f016020809104026020016040519081016040528093929190818152602001838380828437600081840152601f19601f82011690508083019250505050505050815260200184848080601f016020809104026020016040519081016040528093929190818152602001838380828437600081840152601f19601f8201169050808301925050505050505081525090506000808773ffffffffffffffffffffffffffffffffffffffff1673ffffffffffffffffffffffffffffffffffffffff16815260200190815260200160002081908060018154018082558091505060019003906000526020600020906002020160009091909190915060008201518160000190816101e19190610be1565b5060208201518160010190816101f79190610be1565b5050508573ffffffffffffffffffffffffffffffffffffffff167feaa562e71031026445d75adbc1344e45c7ec0f423b37ec86a1004403bb995ed7868686866040516102469493929190610cef565b60405180910390a2505050505050565b60606000808373ffffffffffffffffffffffffffffffffffffffff1673ffffffffffffffffffffffffffffffffffffffff168152602001908152602001600020805480602002602001604051908101604052809291908181526020016000905b8282101561040c57838290600052602060002090600202016040518060400160405290816000820180546102e990610a04565b80601f016020809104026020016040519081016040528092919081815260200182805461031590610a04565b80156103625780601f1061033757610100808354040283529160200191610362565b820191906000526020600020905b81548152906001019060200180831161034557829003601f168201915b5050505050815260200160018201805461037b90610a04565b80601f01602080910402602001604051908101604052809291908181526020018280546103a790610a04565b80156103f45780601f106103c9576101008083540402835291602001916103f4565b820191906000526020600020905b8154815290600101906020018083116103d757829003601f168201915b505050505081525050815260200190600101906102b6565b505050509050919050565b6000602052816000526040600020818154811061043357600080fd5b90600052602060002090600202016000915091505080600001805461045790610a04565b80601f016020809104026020016040519081016040528092919081815260200182805461048390610a04565b80156104d05780601f106104a5576101008083540402835291602001916104d0565b820191906000526020600020905b8154815290600101906020018083116104b357829003601f168201915b5050505050908060010180546104e590610a04565b80601f016020809104026020016040519081016040528092919081815260200182805461051190610a04565b801561055e5780601f106105335761010080835404028352916020019161055e565b820191906000526020600020905b81548152906001019060200180831161054157829003601f168201915b5050505050905082565b600080fd5b600080fd5b600073ffffffffffffffffffffffffffffffffffffffff82169050919050565b600061059d82610572565b9050919050565b6105ad81610592565b81146105b857600080fd5b50565b6000813590506105ca816105a4565b92915050565b600080fd5b600080fd5b600080fd5b60008083601f8401126105f5576105f46105d0565b5b8235905067ffffffffffffffff811115610612576106116105d5565b5b60208301915083600182028301111561062e5761062d6105da565b5b9250929050565b60008060008060006060868803121561065157610650610568565b5b600061065f888289016105bb565b955050602086013567ffffffffffffffff8111156106805761067f61056d565b5b61068c888289016105df565b9450945050604086013567ffffffffffffffff8111156106af576106ae61056d565b5b6106bb888289016105df565b92509250509295509295909350565b6000602082840312156106e0576106df610568565b5b60006106ee848285016105bb565b91505092915050565b600081519050919050565b600082825260208201905092915050565b6000819050602082019050919050565b600081519050919050565b600082825260208201905092915050565b60005b8381101561075d578082015181840152602081019050610742565b60008484015250505050565b6000601f19601f8301169050919050565b600061078582610723565b61078f818561072e565b935061079f81856020860161073f565b6107a881610769565b840191505092915050565b600060408301600083015184820360008601526107d0828261077a565b915050602083015184820360208601526107ea828261077a565b9150508091505092915050565b600061080383836107b3565b905092915050565b6000602082019050919050565b6000610823826106f7565b61082d8185610702565b93508360208202850161083f85610713565b8060005b8581101561087b578484038952815161085c85826107f7565b94506108678361080b565b925060208a01995050600181019050610843565b50829750879550505050505092915050565b600060208201905081810360008301526108a78184610818565b905092915050565b6000819050919050565b6108c2816108af565b81146108cd57600080fd5b50565b6000813590506108df816108b9565b92915050565b600080604083850312156108fc576108fb610568565b5b600061090a858286016105bb565b925050602061091b858286016108d0565b9150509250929050565b600082825260208201905092915050565b600061094182610723565b61094b8185610925565b935061095b81856020860161073f565b61096481610769565b840191505092915050565b600060408201905081810360008301526109898185610936565b9050818103602083015261099d8184610936565b90509392505050565b7f4e487b7100000000000000000000000000000000000000000000000000000000600052604160045260246000fd5b7f4e487b7100000000000000000000000000000000000000000000000000000000600052602260045260246000fd5b60006002820490506001821680610a1c57607f821691505b602082108103610a2f57610a2e6109d5565b5b50919050565b60008190508160005260206000209050919050565b60006020601f8301049050919050565b600082821b905092915050565b600060088302610a977fffffffffffffffffffffffffffffffffffffffffffffffffffffffffffffffff82610a5a565b610aa18683610a5a565b95508019841693508086168417925050509392505050565b6000819050919050565b6000610ade610ad9610ad4846108af565b610ab9565b6108af565b9050919050565b6000819050919050565b610af883610ac3565b610b0c610b0482610ae5565b848454610a67565b825550505050565b600090565b610b21610b14565b610b2c818484610aef565b505050565b5b81811015610b5057610b45600082610b19565b600181019050610b32565b5050565b601f821115610b9557610b6681610a35565b610b6f84610a4a565b81016020851015610b7e578190505b610b92610b8a85610a4a565b830182610b31565b50505b505050565b600082821c905092915050565b6000610bb860001984600802610b9a565b1980831691505092915050565b6000610bd18383610ba7565b9150826002028217905092915050565b610bea82610723565b67ffffffffffffffff811115610c0357610c026109a6565b5b610c0d8254610a04565b610c18828285610b54565b600060209050601f831160018114610c4b5760008415610c39578287015190505b610c438582610bc5565b865550610cab565b601f198416610c5986610a35565b60005b82811015610c8157848901518255600182019150602085019450602081019050610c5c565b86831015610c9e5784890151610c9a601f891682610ba7565b8355505b6001600288020188555050505b505050505050565b82818337600083830152505050565b6000610cce8385610925565b9350610cdb838584610cb3565b610ce483610769565b840190509392505050565b60006040820190508181036000830152610d0a818688610cc2565b90508181036020830152610d1f818486610cc2565b90509594505050505056fea26469706673582212208c20ad4b452bbeb55d8aed8bbb0571438e664e683dda7222bb4eb3149ac7aa5564736f6c63430008180033",
  "linkReferences": {},
  "deployedLinkReferences": {}
}