{
  "contracts/DocumentManagement.sol": {
    "DocumentManagement": {
      "abi": [
        {
          "inputs": [],
          "stateMutability": "nonpayable",
          "type": "constructor"
        },
        {
          "inputs": [],
          "name": "AccessControlBadConfirmation",
          "type": "error"
        },
        {
          "inputs": [
            {
              "internalType": "address",
              "name": "account",
              "type": "address"
            },
            {
              "internalType": "bytes32",
              "name": "neededRole",
              "type": "bytes32"
            }
          ],
          "name": "AccessControlUnauthorizedAccount",
          "type": "error"
        },
        {
          "anonymous": false,
          "inputs": [
            {
              "indexed": true,
              "internalType": "uint256",
              "name": "documentId",
              "type": "uint256"
            },
            {
              "indexed": true,
              "internalType": "address",
              "name": "issuingAuthority",
              "type": "address"
            },
            {
              "indexed": true,
              "internalType": "address",
              "name": "individualOwner",
              "type": "address"
            }
          ],
          "name": "DocumentIssued",
          "type": "event"
        },
        {
          "anonymous": false,
          "inputs": [
            {
              "indexed": true,
              "internalType": "uint256",
              "name": "documentId",
              "type": "uint256"
            },
            {
              "indexed": true,
              "internalType": "address",
              "name": "verifyingAuthority",
              "type": "address"
            }
          ],
          "name": "DocumentVerified",
          "type": "event"
        },
        {
          "anonymous": false,
          "inputs": [
            {
              "indexed": true,
              "internalType": "bytes32",
              "name": "role",
              "type": "bytes32"
            },
            {
              "indexed": true,
              "internalType": "bytes32",
              "name": "previousAdminRole",
              "type": "bytes32"
            },
            {
              "indexed": true,
              "internalType": "bytes32",
              "name": "newAdminRole",
              "type": "bytes32"
            }
          ],
          "name": "RoleAdminChanged",
          "type": "event"
        },
        {
          "anonymous": false,
          "inputs": [
            {
              "indexed": true,
              "internalType": "bytes32",
              "name": "role",
              "type": "bytes32"
            },
            {
              "indexed": true,
              "internalType": "address",
              "name": "account",
              "type": "address"
            },
            {
              "indexed": true,
              "internalType": "address",
              "name": "sender",
              "type": "address"
            }
          ],
          "name": "RoleGranted",
          "type": "event"
        },
        {
          "anonymous": false,
          "inputs": [
            {
              "indexed": true,
              "internalType": "bytes32",
              "name": "role",
              "type": "bytes32"
            },
            {
              "indexed": true,
              "internalType": "address",
              "name": "account",
              "type": "address"
            },
            {
              "indexed": true,
              "internalType": "address",
              "name": "sender",
              "type": "address"
            }
          ],
          "name": "RoleRevoked",
          "type": "event"
        },
        {
          "inputs": [],
          "name": "DEFAULT_ADMIN_ROLE",
          "outputs": [
            {
              "internalType": "bytes32",
              "name": "",
              "type": "bytes32"
            }
          ],
          "stateMutability": "view",
          "type": "function"
        },
        {
          "inputs": [],
          "name": "INDIVIDUAL_ROLE",
          "outputs": [
            {
              "internalType": "bytes32",
              "name": "",
              "type": "bytes32"
            }
          ],
          "stateMutability": "view",
          "type": "function"
        },
        {
          "inputs": [],
          "name": "ISSUING_AUTHORITY_ROLE",
          "outputs": [
            {
              "internalType": "bytes32",
              "name": "",
              "type": "bytes32"
            }
          ],
          "stateMutability": "view",
          "type": "function"
        },
        {
          "inputs": [],
          "name": "VERIFYING_AUTHORITY_ROLE",
          "outputs": [
            {
              "internalType": "bytes32",
              "name": "",
              "type": "bytes32"
            }
          ],
          "stateMutability": "view",
          "type": "function"
        },
        {
          "inputs": [
            {
              "internalType": "address",
              "name": "account",
              "type": "address"
            }
          ],
          "name": "addIndividual",
          "outputs": [],
          "stateMutability": "nonpayable",
          "type": "function"
        },
        {
          "inputs": [
            {
              "internalType": "address",
              "name": "account",
              "type": "address"
            }
          ],
          "name": "addIssuingAuthority",
          "outputs": [],
          "stateMutability": "nonpayable",
          "type": "function"
        },
        {
          "inputs": [
            {
              "internalType": "address",
              "name": "account",
              "type": "address"
            }
          ],
          "name": "addVerifyingAuthority",
          "outputs": [],
          "stateMutability": "nonpayable",
          "type": "function"
        },
        {
          "inputs": [
            {
              "internalType": "uint256",
              "name": "",
              "type": "uint256"
            }
          ],
          "name": "documents",
          "outputs": [
            {
              "internalType": "uint256",
              "name": "id",
              "type": "uint256"
            },
            {
              "internalType": "string",
              "name": "ipfsHash",
              "type": "string"
            },
            {
              "internalType": "address",
              "name": "issuingAuthority",
              "type": "address"
            },
            {
              "internalType": "address",
              "name": "individualOwner",
              "type": "address"
            },
            {
              "internalType": "string",
              "name": "documentType",
              "type": "string"
            },
            {
              "internalType": "uint256",
              "name": "issueDate",
              "type": "uint256"
            },
            {
              "internalType": "bool",
              "name": "isVerified",
              "type": "bool"
            }
          ],
          "stateMutability": "view",
          "type": "function"
        },
        {
          "inputs": [
            {
              "internalType": "uint256",
              "name": "_documentId",
              "type": "uint256"
            }
          ],
          "name": "getDocument",
          "outputs": [
            {
              "components": [
                {
                  "internalType": "uint256",
                  "name": "id",
                  "type": "uint256"
                },
                {
                  "internalType": "string",
                  "name": "ipfsHash",
                  "type": "string"
                },
                {
                  "internalType": "address",
                  "name": "issuingAuthority",
                  "type": "address"
                },
                {
                  "internalType": "address",
                  "name": "individualOwner",
                  "type": "address"
                },
                {
                  "internalType": "string",
                  "name": "documentType",
                  "type": "string"
                },
                {
                  "internalType": "uint256",
                  "name": "issueDate",
                  "type": "uint256"
                },
                {
                  "internalType": "bool",
                  "name": "isVerified",
                  "type": "bool"
                }
              ],
              "internalType": "struct Document.DocumentInfo",
              "name": "",
              "type": "tuple"
            }
          ],
          "stateMutability": "view",
          "type": "function"
        },
        {
          "inputs": [
            {
              "internalType": "address",
              "name": "_individual",
              "type": "address"
            }
          ],
          "name": "getIndividualDocuments",
          "outputs": [
            {
              "internalType": "uint256[]",
              "name": "",
              "type": "uint256[]"
            }
          ],
          "stateMutability": "view",
          "type": "function"
        },
        {
          "inputs": [],
          "name": "getMyDocuments",
          "outputs": [
            {
              "internalType": "uint256[]",
              "name": "",
              "type": "uint256[]"
            }
          ],
          "stateMutability": "view",
          "type": "function"
        },
        {
          "inputs": [
            {
              "internalType": "bytes32",
              "name": "role",
              "type": "bytes32"
            }
          ],
          "name": "getRoleAdmin",
          "outputs": [
            {
              "internalType": "bytes32",
              "name": "",
              "type": "bytes32"
            }
          ],
          "stateMutability": "view",
          "type": "function"
        },
        {
          "inputs": [
            {
              "internalType": "bytes32",
              "name": "role",
              "type": "bytes32"
            },
            {
              "internalType": "address",
              "name": "account",
              "type": "address"
            }
          ],
          "name": "grantRole",
          "outputs": [],
          "stateMutability": "nonpayable",
          "type": "function"
        },
        {
          "inputs": [
            {
              "internalType": "bytes32",
              "name": "role",
              "type": "bytes32"
            },
            {
              "internalType": "address",
              "name": "account",
              "type": "address"
            }
          ],
          "name": "hasRole",
          "outputs": [
            {
              "internalType": "bool",
              "name": "",
              "type": "bool"
            }
          ],
          "stateMutability": "view",
          "type": "function"
        },
        {
          "inputs": [
            {
              "internalType": "address",
              "name": "",
              "type": "address"
            },
            {
              "internalType": "uint256",
              "name": "",
              "type": "uint256"
            }
          ],
          "name": "individualDocuments",
          "outputs": [
            {
              "internalType": "uint256",
              "name": "",
              "type": "uint256"
            }
          ],
          "stateMutability": "view",
          "type": "function"
        },
        {
          "inputs": [
            {
              "internalType": "string",
              "name": "_ipfsHash",
              "type": "string"
            },
            {
              "internalType": "address",
              "name": "_individualOwner",
              "type": "address"
            },
            {
              "internalType": "string",
              "name": "_documentType",
              "type": "string"
            }
          ],
          "name": "issueDocument",
          "outputs": [
            {
              "internalType": "uint256",
              "name": "",
              "type": "uint256"
            }
          ],
          "stateMutability": "nonpayable",
          "type": "function"
        },
        {
          "inputs": [],
          "name": "mintToken",
          "outputs": [
            {
              "internalType": "uint256",
              "name": "",
              "type": "uint256"
            }
          ],
          "stateMutability": "nonpayable",
          "type": "function"
        },
        {
          "inputs": [
            {
              "internalType": "bytes32",
              "name": "role",
              "type": "bytes32"
            },
            {
              "internalType": "address",
              "name": "account",
              "type": "address"
            }
          ],
          "name": "removeRole",
          "outputs": [],
          "stateMutability": "nonpayable",
          "type": "function"
        },
        {
          "inputs": [
            {
              "internalType": "bytes32",
              "name": "role",
              "type": "bytes32"
            },
            {
              "internalType": "address",
              "name": "callerConfirmation",
              "type": "address"
            }
          ],
          "name": "renounceRole",
          "outputs": [],
          "stateMutability": "nonpayable",
          "type": "function"
        },
        {
          "inputs": [
            {
              "internalType": "bytes32",
              "name": "role",
              "type": "bytes32"
            },
            {
              "internalType": "address",
              "name": "account",
              "type": "address"
            }
          ],
          "name": "revokeRole",
          "outputs": [],
          "stateMutability": "nonpayable",
          "type": "function"
        },
        {
          "inputs": [
            {
              "internalType": "bytes4",
              "name": "interfaceId",
              "type": "bytes4"
            }
          ],
          "name": "supportsInterface",
          "outputs": [
            {
              "internalType": "bool",
              "name": "",
              "type": "bool"
            }
          ],
          "stateMutability": "view",
          "type": "function"
        },
        {
          "inputs": [
            {
              "internalType": "uint256",
              "name": "_documentId",
              "type": "uint256"
            }
          ],
          "name": "verifyDocument",
          "outputs": [],
          "stateMutability": "nonpayable",
          "type": "function"
        }
      ],
      "evm": {
        "bytecode": {
          "linkReferences": {},
          "object": "60806040523480156200001157600080fd5b50620000276000801b336200002e60201b60201c565b50620001a3565b60006200004283836200013160201b60201c565b6200012657600160008085815260200190815260200160002060000160008473ffffffffffffffffffffffffffffffffffffffff1673ffffffffffffffffffffffffffffffffffffffff16815260200190815260200160002060006101000a81548160ff021916908315150217905550620000c26200019b60201b60201c565b73ffffffffffffffffffffffffffffffffffffffff168273ffffffffffffffffffffffffffffffffffffffff16847f2f8788117e7eff1d82e926ec794901d17c78024a50270940304540a733656f0d60405160405180910390a4600190506200012b565b600090505b92915050565b600080600084815260200190815260200160002060000160008373ffffffffffffffffffffffffffffffffffffffff1673ffffffffffffffffffffffffffffffffffffffff16815260200190815260200160002060009054906101000a900460ff16905092915050565b600033905090565b611f4680620001b36000396000f3fe608060405234801561001057600080fd5b50600436106101425760003560e01c806356fb8928116100b857806391d148541161007c57806391d1485414610387578063a217fddf146103b7578063c2ed2b05146103d5578063d547741f1461040b578063d602bc3314610427578063f6ba00071461044557610142565b806356fb8928146102e55780636072b021146103015780636dda61d9146103315780637ce414c11461034d5780639111976e1461036957610142565b8063248a9ca31161010a578063248a9ca3146102135780632f2ff15d1461024357806336568abe1461025f5780633bff22991461027b5780633f9b250a146102975780634fe664e3146102c757610142565b806301ffc9a7146101475780630d12676614610177578063126151e1146101a757806314122cda146101d75780632004ffd9146101f5575b600080fd5b610161600480360381019061015c91906113b5565b610461565b60405161016e91906113fd565b60405180910390f35b610191600480360381019061018c91906114ac565b6104db565b60405161019e91906114fb565b60405180910390f35b6101c160048036038101906101bc9190611516565b61050c565b6040516101ce9190611601565b60405180910390f35b6101df6105a3565b6040516101ec919061163c565b60405180910390f35b6101fd6105c7565b60405161020a91906114fb565b60405180910390f35b61022d60048036038101906102289190611683565b6105ef565b60405161023a919061163c565b60405180910390f35b61025d600480360381019061025891906116b0565b61060e565b005b610279600480360381019061027491906116b0565b610630565b005b61029560048036038101906102909190611516565b6106ab565b005b6102b160048036038101906102ac91906116f0565b6106e6565b6040516102be919061186e565b60405180910390f35b6102cf610729565b6040516102dc919061163c565b60405180910390f35b6102ff60048036038101906102fa9190611516565b61074d565b005b61031b600480360381019061031691906119c5565b61077a565b60405161032891906114fb565b60405180910390f35b61034b600480360381019061034691906116f0565b6107bb565b005b61036760048036038101906103629190611516565b6107f2565b005b61037161082d565b60405161037e9190611601565b60405180910390f35b6103a1600480360381019061039c91906116b0565b610868565b6040516103ae91906113fd565b60405180910390f35b6103bf6108d2565b6040516103cc919061163c565b60405180910390f35b6103ef60048036038101906103ea91906116f0565b6108d9565b6040516104029796959493929190611aa9565b60405180910390f35b610425600480360381019061042091906116b0565b610a78565b005b61042f610a9a565b60405161043c919061163c565b60405180910390f35b61045f600480360381019061045a91906116b0565b610abe565b005b60007f7965db0b000000000000000000000000000000000000000000000000000000007bffffffffffffffffffffffffffffffffffffffffffffffffffffffff1916827bffffffffffffffffffffffffffffffffffffffffffffffffffffffff191614806104d457506104d382610ada565b5b9050919050565b600360205281600052604060002081815481106104f757600080fd5b90600052602060002001600091509150505481565b6060600360008373ffffffffffffffffffffffffffffffffffffffff1673ffffffffffffffffffffffffffffffffffffffff16815260200190815260200160002080548060200260200160405190810160405280929190818152602001828054801561059757602002820191906000526020600020905b815481526020019060010190808311610583575b50505050509050919050565b7fb283a27f4ed4acf1cf999abe35a4fcc30815a62996bd2ca14d4a1a695b1b369f81565b6000600160008154809291906105dc90611b55565b9190505550600060015490508091505090565b6000806000838152602001908152602001600020600101549050919050565b610617826105ef565b61062081610b44565b61062a8383610b58565b50505050565b610638610c49565b73ffffffffffffffffffffffffffffffffffffffff168173ffffffffffffffffffffffffffffffffffffffff161461069c576040517f6697b23200000000000000000000000000000000000000000000000000000000815260040160405180910390fd5b6106a68282610c51565b505050565b6000801b6106b881610b44565b6106e27fb283a27f4ed4acf1cf999abe35a4fcc30815a62996bd2ca14d4a1a695b1b369f8361060e565b5050565b6106ee6112de565b7f7725616b8d02c63f5ad5850cc554b9b7678d0b2e3fad3bd247b7db69880ad11d61071881610b44565b61072183610d43565b915050919050565b7f386b4a96227ffc4b7bb0b3c432e5406b9099f8736f2dada86c006a68b79b78de81565b6107777f386b4a96227ffc4b7bb0b3c432e5406b9099f8736f2dada86c006a68b79b78de8261060e565b50565b60007fb283a27f4ed4acf1cf999abe35a4fcc30815a62996bd2ca14d4a1a695b1b369f6107a681610b44565b6107b1858585610f6f565b9150509392505050565b7f7725616b8d02c63f5ad5850cc554b9b7678d0b2e3fad3bd247b7db69880ad11d6107e581610b44565b6107ee826111b3565b5050565b6000801b6107ff81610b44565b6108297f7725616b8d02c63f5ad5850cc554b9b7678d0b2e3fad3bd247b7db69880ad11d8361060e565b5050565b60607f386b4a96227ffc4b7bb0b3c432e5406b9099f8736f2dada86c006a68b79b78de61085981610b44565b6108623361050c565b91505090565b600080600084815260200190815260200160002060000160008373ffffffffffffffffffffffffffffffffffffffff1673ffffffffffffffffffffffffffffffffffffffff16815260200190815260200160002060009054906101000a900460ff16905092915050565b6000801b81565b600260205280600052604060002060009150905080600001549080600101805461090290611bcc565b80601f016020809104026020016040519081016040528092919081815260200182805461092e90611bcc565b801561097b5780601f106109505761010080835404028352916020019161097b565b820191906000526020600020905b81548152906001019060200180831161095e57829003601f168201915b5050505050908060020160009054906101000a900473ffffffffffffffffffffffffffffffffffffffff16908060030160009054906101000a900473ffffffffffffffffffffffffffffffffffffffff16908060040180546109dc90611bcc565b80601f0160208091040260200160405190810160405280929190818152602001828054610a0890611bcc565b8015610a555780601f10610a2a57610100808354040283529160200191610a55565b820191906000526020600020905b815481529060010190602001808311610a3857829003601f168201915b5050505050908060050154908060060160009054906101000a900460ff16905087565b610a81826105ef565b610a8a81610b44565b610a948383610c51565b50505050565b7f7725616b8d02c63f5ad5850cc554b9b7678d0b2e3fad3bd247b7db69880ad11d81565b6000801b610acb81610b44565b610ad58383610a78565b505050565b60007f01ffc9a7000000000000000000000000000000000000000000000000000000007bffffffffffffffffffffffffffffffffffffffffffffffffffffffff1916827bffffffffffffffffffffffffffffffffffffffffffffffffffffffff1916149050919050565b610b5581610b50610c49565b61128d565b50565b6000610b648383610868565b610c3e57600160008085815260200190815260200160002060000160008473ffffffffffffffffffffffffffffffffffffffff1673ffffffffffffffffffffffffffffffffffffffff16815260200190815260200160002060006101000a81548160ff021916908315150217905550610bdb610c49565b73ffffffffffffffffffffffffffffffffffffffff168273ffffffffffffffffffffffffffffffffffffffff16847f2f8788117e7eff1d82e926ec794901d17c78024a50270940304540a733656f0d60405160405180910390a460019050610c43565b600090505b92915050565b600033905090565b6000610c5d8383610868565b15610d3857600080600085815260200190815260200160002060000160008473ffffffffffffffffffffffffffffffffffffffff1673ffffffffffffffffffffffffffffffffffffffff16815260200190815260200160002060006101000a81548160ff021916908315150217905550610cd5610c49565b73ffffffffffffffffffffffffffffffffffffffff168273ffffffffffffffffffffffffffffffffffffffff16847ff6391f5c32d9c69d2a47ea670b442974b53935d1edc7fd64eb21e047a839171b60405160405180910390a460019050610d3d565b600090505b92915050565b610d4b6112de565b600260008381526020019081526020016000206040518060e001604052908160008201548152602001600182018054610d8390611bcc565b80601f0160208091040260200160405190810160405280929190818152602001828054610daf90611bcc565b8015610dfc5780601f10610dd157610100808354040283529160200191610dfc565b820191906000526020600020905b815481529060010190602001808311610ddf57829003601f168201915b505050505081526020016002820160009054906101000a900473ffffffffffffffffffffffffffffffffffffffff1673ffffffffffffffffffffffffffffffffffffffff1673ffffffffffffffffffffffffffffffffffffffff1681526020016003820160009054906101000a900473ffffffffffffffffffffffffffffffffffffffff1673ffffffffffffffffffffffffffffffffffffffff1673ffffffffffffffffffffffffffffffffffffffff168152602001600482018054610ec190611bcc565b80601f0160208091040260200160405190810160405280929190818152602001828054610eed90611bcc565b8015610f3a5780601f10610f0f57610100808354040283529160200191610f3a565b820191906000526020600020905b815481529060010190602001808311610f1d57829003601f168201915b50505050508152602001600582015481526020016006820160009054906101000a900460ff1615151515815250509050919050565b6000610f796105c7565b50600060015490506040518060e001604052808281526020018681526020013373ffffffffffffffffffffffffffffffffffffffff1681526020018573ffffffffffffffffffffffffffffffffffffffff16815260200184815260200142815260200160001515815250600260008381526020019081526020016000206000820151816000015560208201518160010190816110159190611da9565b5060408201518160020160006101000a81548173ffffffffffffffffffffffffffffffffffffffff021916908373ffffffffffffffffffffffffffffffffffffffff16021790555060608201518160030160006101000a81548173ffffffffffffffffffffffffffffffffffffffff021916908373ffffffffffffffffffffffffffffffffffffffff16021790555060808201518160040190816110b99190611da9565b5060a0820151816005015560c08201518160060160006101000a81548160ff021916908315150217905550905050600360008573ffffffffffffffffffffffffffffffffffffffff1673ffffffffffffffffffffffffffffffffffffffff1681526020019081526020016000208190806001815401808255809150506001900390600052602060002001600090919091909150558373ffffffffffffffffffffffffffffffffffffffff163373ffffffffffffffffffffffffffffffffffffffff16827f264a2fcff58f980486245f7d5ca8bb277eda06b4af67e6776dec93e02faf78a060405160405180910390a4809150509392505050565b6002600082815260200190815260200160002060060160009054906101000a900460ff1615611217576040517f08c379a000000000000000000000000000000000000000000000000000000000815260040161120e90611ec7565b60405180910390fd5b60016002600083815260200190815260200160002060060160006101000a81548160ff0219169083151502179055503373ffffffffffffffffffffffffffffffffffffffff16817f6966a20715f4337f34fd08d8aa190a3c343cf21ad67677b447632194d8d6030860405160405180910390a350565b6112978282610868565b6112da5780826040517fe2517d3f0000000000000000000000000000000000000000000000000000000081526004016112d1929190611ee7565b60405180910390fd5b5050565b6040518060e001604052806000815260200160608152602001600073ffffffffffffffffffffffffffffffffffffffff168152602001600073ffffffffffffffffffffffffffffffffffffffff16815260200160608152602001600081526020016000151581525090565b6000604051905090565b600080fd5b600080fd5b60007fffffffff0000000000000000000000000000000000000000000000000000000082169050919050565b6113928161135d565b811461139d57600080fd5b50565b6000813590506113af81611389565b92915050565b6000602082840312156113cb576113ca611353565b5b60006113d9848285016113a0565b91505092915050565b60008115159050919050565b6113f7816113e2565b82525050565b600060208201905061141260008301846113ee565b92915050565b600073ffffffffffffffffffffffffffffffffffffffff82169050919050565b600061144382611418565b9050919050565b61145381611438565b811461145e57600080fd5b50565b6000813590506114708161144a565b92915050565b6000819050919050565b61148981611476565b811461149457600080fd5b50565b6000813590506114a681611480565b92915050565b600080604083850312156114c3576114c2611353565b5b60006114d185828601611461565b92505060206114e285828601611497565b9150509250929050565b6114f581611476565b82525050565b600060208201905061151060008301846114ec565b92915050565b60006020828403121561152c5761152b611353565b5b600061153a84828501611461565b91505092915050565b600081519050919050565b600082825260208201905092915050565b6000819050602082019050919050565b61157881611476565b82525050565b600061158a838361156f565b60208301905092915050565b6000602082019050919050565b60006115ae82611543565b6115b8818561154e565b93506115c38361155f565b8060005b838110156115f45781516115db888261157e565b97506115e683611596565b9250506001810190506115c7565b5085935050505092915050565b6000602082019050818103600083015261161b81846115a3565b905092915050565b6000819050919050565b61163681611623565b82525050565b6000602082019050611651600083018461162d565b92915050565b61166081611623565b811461166b57600080fd5b50565b60008135905061167d81611657565b92915050565b60006020828403121561169957611698611353565b5b60006116a78482850161166e565b91505092915050565b600080604083850312156116c7576116c6611353565b5b60006116d58582860161166e565b92505060206116e685828601611461565b9150509250929050565b60006020828403121561170657611705611353565b5b600061171484828501611497565b91505092915050565b600081519050919050565b600082825260208201905092915050565b60005b8381101561175757808201518184015260208101905061173c565b60008484015250505050565b6000601f19601f8301169050919050565b600061177f8261171d565b6117898185611728565b9350611799818560208601611739565b6117a281611763565b840191505092915050565b6117b681611438565b82525050565b6117c5816113e2565b82525050565b600060e0830160008301516117e3600086018261156f565b50602083015184820360208601526117fb8282611774565b915050604083015161181060408601826117ad565b50606083015161182360608601826117ad565b506080830151848203608086015261183b8282611774565b91505060a083015161185060a086018261156f565b5060c083015161186360c08601826117bc565b508091505092915050565b6000602082019050818103600083015261188881846117cb565b905092915050565b600080fd5b600080fd5b7f4e487b7100000000000000000000000000000000000000000000000000000000600052604160045260246000fd5b6118d282611763565b810181811067ffffffffffffffff821117156118f1576118f061189a565b5b80604052505050565b6000611904611349565b905061191082826118c9565b919050565b600067ffffffffffffffff8211156119305761192f61189a565b5b61193982611763565b9050602081019050919050565b82818337600083830152505050565b600061196861196384611915565b6118fa565b90508281526020810184848401111561198457611983611895565b5b61198f848285611946565b509392505050565b600082601f8301126119ac576119ab611890565b5b81356119bc848260208601611955565b91505092915050565b6000806000606084860312156119de576119dd611353565b5b600084013567ffffffffffffffff8111156119fc576119fb611358565b5b611a0886828701611997565b9350506020611a1986828701611461565b925050604084013567ffffffffffffffff811115611a3a57611a39611358565b5b611a4686828701611997565b9150509250925092565b600082825260208201905092915050565b6000611a6c8261171d565b611a768185611a50565b9350611a86818560208601611739565b611a8f81611763565b840191505092915050565b611aa381611438565b82525050565b600060e082019050611abe600083018a6114ec565b8181036020830152611ad08189611a61565b9050611adf6040830188611a9a565b611aec6060830187611a9a565b8181036080830152611afe8186611a61565b9050611b0d60a08301856114ec565b611b1a60c08301846113ee565b98975050505050505050565b7f4e487b7100000000000000000000000000000000000000000000000000000000600052601160045260246000fd5b6000611b6082611476565b91507fffffffffffffffffffffffffffffffffffffffffffffffffffffffffffffffff8203611b9257611b91611b26565b5b600182019050919050565b7f4e487b7100000000000000000000000000000000000000000000000000000000600052602260045260246000fd5b60006002820490506001821680611be457607f821691505b602082108103611bf757611bf6611b9d565b5b50919050565b60008190508160005260206000209050919050565b60006020601f8301049050919050565b600082821b905092915050565b600060088302611c5f7fffffffffffffffffffffffffffffffffffffffffffffffffffffffffffffffff82611c22565b611c698683611c22565b95508019841693508086168417925050509392505050565b6000819050919050565b6000611ca6611ca1611c9c84611476565b611c81565b611476565b9050919050565b6000819050919050565b611cc083611c8b565b611cd4611ccc82611cad565b848454611c2f565b825550505050565b600090565b611ce9611cdc565b611cf4818484611cb7565b505050565b5b81811015611d1857611d0d600082611ce1565b600181019050611cfa565b5050565b601f821115611d5d57611d2e81611bfd565b611d3784611c12565b81016020851015611d46578190505b611d5a611d5285611c12565b830182611cf9565b50505b505050565b600082821c905092915050565b6000611d8060001984600802611d62565b1980831691505092915050565b6000611d998383611d6f565b9150826002028217905092915050565b611db28261171d565b67ffffffffffffffff811115611dcb57611dca61189a565b5b611dd58254611bcc565b611de0828285611d1c565b600060209050601f831160018114611e135760008415611e01578287015190505b611e0b8582611d8d565b865550611e73565b601f198416611e2186611bfd565b60005b82811015611e4957848901518255600182019150602085019450602081019050611e24565b86831015611e665784890151611e62601f891682611d6f565b8355505b6001600288020188555050505b505050505050565b7f446f63756d656e7420697320616c726561647920766572696669656400000000600082015250565b6000611eb1601c83611a50565b9150611ebc82611e7b565b602082019050919050565b60006020820190508181036000830152611ee081611ea4565b9050919050565b6000604082019050611efc6000830185611a9a565b611f09602083018461162d565b939250505056fea2646970667358221220cfe67881b091116b99c0f6076f5d47613bff384435c7e8d2f455203a10bf9e7f64736f6c63430008180033",
          "opcodes": "PUSH1 0x80 PUSH1 0x40 MSTORE CALLVALUE DUP1 ISZERO PUSH3 0x11 JUMPI PUSH1 0x0 DUP1 REVERT JUMPDEST POP PUSH3 0x27 PUSH1 0x0 DUP1 SHL CALLER PUSH3 0x2E PUSH1 0x20 SHL PUSH1 0x20 SHR JUMP JUMPDEST POP PUSH3 0x1A3 JUMP JUMPDEST PUSH1 0x0 PUSH3 0x42 DUP4 DUP4 PUSH3 0x131 PUSH1 0x20 SHL PUSH1 0x20 SHR JUMP JUMPDEST PUSH3 0x126 JUMPI PUSH1 0x1 PUSH1 0x0 DUP1 DUP6 DUP2 MSTORE PUSH1 0x20 ADD SWAP1 DUP2 MSTORE PUSH1 0x20 ADD PUSH1 0x0 KECCAK256 PUSH1 0x0 ADD PUSH1 0x0 DUP5 PUSH20 0xFFFFFFFFFFFFFFFFFFFFFFFFFFFFFFFFFFFFFFFF AND PUSH20 0xFFFFFFFFFFFFFFFFFFFFFFFFFFFFFFFFFFFFFFFF AND DUP2 MSTORE PUSH1 0x20 ADD SWAP1 DUP2 MSTORE PUSH1 0x20 ADD PUSH1 0x0 KECCAK256 PUSH1 0x0 PUSH2 0x100 EXP DUP2 SLOAD DUP2 PUSH1 0xFF MUL NOT AND SWAP1 DUP4 ISZERO ISZERO MUL OR SWAP1 SSTORE POP PUSH3 0xC2 PUSH3 0x19B PUSH1 0x20 SHL PUSH1 0x20 SHR JUMP JUMPDEST PUSH20 0xFFFFFFFFFFFFFFFFFFFFFFFFFFFFFFFFFFFFFFFF AND DUP3 PUSH20 0xFFFFFFFFFFFFFFFFFFFFFFFFFFFFFFFFFFFFFFFF AND DUP5 PUSH32 0x2F8788117E7EFF1D82E926EC794901D17C78024A50270940304540A733656F0D PUSH1 0x40 MLOAD PUSH1 0x40 MLOAD DUP1 SWAP2 SUB SWAP1 LOG4 PUSH1 0x1 SWAP1 POP PUSH3 0x12B JUMP JUMPDEST PUSH1 0x0 SWAP1 POP JUMPDEST SWAP3 SWAP2 POP POP JUMP JUMPDEST PUSH1 0x0 DUP1 PUSH1 0x0 DUP5 DUP2 MSTORE PUSH1 0x20 ADD SWAP1 DUP2 MSTORE PUSH1 0x20 ADD PUSH1 0x0 KECCAK256 PUSH1 0x0 ADD PUSH1 0x0 DUP4 PUSH20 0xFFFFFFFFFFFFFFFFFFFFFFFFFFFFFFFFFFFFFFFF AND PUSH20 0xFFFFFFFFFFFFFFFFFFFFFFFFFFFFFFFFFFFFFFFF AND DUP2 MSTORE PUSH1 0x20 ADD SWAP1 DUP2 MSTORE PUSH1 0x20 ADD PUSH1 0x0 KECCAK256 PUSH1 0x0 SWAP1 SLOAD SWAP1 PUSH2 0x100 EXP SWAP1 DIV PUSH1 0xFF AND SWAP1 POP SWAP3 SWAP2 POP POP JUMP JUMPDEST PUSH1 0x0 CALLER SWAP1 POP SWAP1 JUMP JUMPDEST PUSH2 0x1F46 DUP1 PUSH3 0x1B3 PUSH1 0x0 CODECOPY PUSH1 0x0 RETURN INVALID PUSH1 0x80 PUSH1 0x40 MSTORE CALLVALUE DUP1 ISZERO PUSH2 0x10 JUMPI PUSH1 0x0 DUP1 REVERT JUMPDEST POP PUSH1 0x4 CALLDATASIZE LT PUSH2 0x142 JUMPI PUSH1 0x0 CALLDATALOAD PUSH1 0xE0 SHR DUP1 PUSH4 0x56FB8928 GT PUSH2 0xB8 JUMPI DUP1 PUSH4 0x91D14854 GT PUSH2 0x7C JUMPI DUP1 PUSH4 0x91D14854 EQ PUSH2 0x387 JUMPI DUP1 PUSH4 0xA217FDDF EQ PUSH2 0x3B7 JUMPI DUP1 PUSH4 0xC2ED2B05 EQ PUSH2 0x3D5 JUMPI DUP1 PUSH4 0xD547741F EQ PUSH2 0x40B JUMPI DUP1 PUSH4 0xD602BC33 EQ PUSH2 0x427 JUMPI DUP1 PUSH4 0xF6BA0007 EQ PUSH2 0x445 JUMPI PUSH2 0x142 JUMP JUMPDEST DUP1 PUSH4 0x56FB8928 EQ PUSH2 0x2E5 JUMPI DUP1 PUSH4 0x6072B021 EQ PUSH2 0x301 JUMPI DUP1 PUSH4 0x6DDA61D9 EQ PUSH2 0x331 JUMPI DUP1 PUSH4 0x7CE414C1 EQ PUSH2 0x34D JUMPI DUP1 PUSH4 0x9111976E EQ PUSH2 0x369 JUMPI PUSH2 0x142 JUMP JUMPDEST DUP1 PUSH4 0x248A9CA3 GT PUSH2 0x10A JUMPI DUP1 PUSH4 0x248A9CA3 EQ PUSH2 0x213 JUMPI DUP1 PUSH4 0x2F2FF15D EQ PUSH2 0x243 JUMPI DUP1 PUSH4 0x36568ABE EQ PUSH2 0x25F JUMPI DUP1 PUSH4 0x3BFF2299 EQ PUSH2 0x27B JUMPI DUP1 PUSH4 0x3F9B250A EQ PUSH2 0x297 JUMPI DUP1 PUSH4 0x4FE664E3 EQ PUSH2 0x2C7 JUMPI PUSH2 0x142 JUMP JUMPDEST DUP1 PUSH4 0x1FFC9A7 EQ PUSH2 0x147 JUMPI DUP1 PUSH4 0xD126766 EQ PUSH2 0x177 JUMPI DUP1 PUSH4 0x126151E1 EQ PUSH2 0x1A7 JUMPI DUP1 PUSH4 0x14122CDA EQ PUSH2 0x1D7 JUMPI DUP1 PUSH4 0x2004FFD9 EQ PUSH2 0x1F5 JUMPI JUMPDEST PUSH1 0x0 DUP1 REVERT JUMPDEST PUSH2 0x161 PUSH1 0x4 DUP1 CALLDATASIZE SUB DUP2 ADD SWAP1 PUSH2 0x15C SWAP2 SWAP1 PUSH2 0x13B5 JUMP JUMPDEST PUSH2 0x461 JUMP JUMPDEST PUSH1 0x40 MLOAD PUSH2 0x16E SWAP2 SWAP1 PUSH2 0x13FD JUMP JUMPDEST PUSH1 0x40 MLOAD DUP1 SWAP2 SUB SWAP1 RETURN JUMPDEST PUSH2 0x191 PUSH1 0x4 DUP1 CALLDATASIZE SUB DUP2 ADD SWAP1 PUSH2 0x18C SWAP2 SWAP1 PUSH2 0x14AC JUMP JUMPDEST PUSH2 0x4DB JUMP JUMPDEST PUSH1 0x40 MLOAD PUSH2 0x19E SWAP2 SWAP1 PUSH2 0x14FB JUMP JUMPDEST PUSH1 0x40 MLOAD DUP1 SWAP2 SUB SWAP1 RETURN JUMPDEST PUSH2 0x1C1 PUSH1 0x4 DUP1 CALLDATASIZE SUB DUP2 ADD SWAP1 PUSH2 0x1BC SWAP2 SWAP1 PUSH2 0x1516 JUMP JUMPDEST PUSH2 0x50C JUMP JUMPDEST PUSH1 0x40 MLOAD PUSH2 0x1CE SWAP2 SWAP1 PUSH2 0x1601 JUMP JUMPDEST PUSH1 0x40 MLOAD DUP1 SWAP2 SUB SWAP1 RETURN JUMPDEST PUSH2 0x1DF PUSH2 0x5A3 JUMP JUMPDEST PUSH1 0x40 MLOAD PUSH2 0x1EC SWAP2 SWAP1 PUSH2 0x163C JUMP JUMPDEST PUSH1 0x40 MLOAD DUP1 SWAP2 SUB SWAP1 RETURN JUMPDEST PUSH2 0x1FD PUSH2 0x5C7 JUMP JUMPDEST PUSH1 0x40 MLOAD PUSH2 0x20A SWAP2 SWAP1 PUSH2 0x14FB JUMP JUMPDEST PUSH1 0x40 MLOAD DUP1 SWAP2 SUB SWAP1 RETURN JUMPDEST PUSH2 0x22D PUSH1 0x4 DUP1 CALLDATASIZE SUB DUP2 ADD SWAP1 PUSH2 0x228 SWAP2 SWAP1 PUSH2 0x1683 JUMP JUMPDEST PUSH2 0x5EF JUMP JUMPDEST PUSH1 0x40 MLOAD PUSH2 0x23A SWAP2 SWAP1 PUSH2 0x163C JUMP JUMPDEST PUSH1 0x40 MLOAD DUP1 SWAP2 SUB SWAP1 RETURN JUMPDEST PUSH2 0x25D PUSH1 0x4 DUP1 CALLDATASIZE SUB DUP2 ADD SWAP1 PUSH2 0x258 SWAP2 SWAP1 PUSH2 0x16B0 JUMP JUMPDEST PUSH2 0x60E JUMP JUMPDEST STOP JUMPDEST PUSH2 0x279 PUSH1 0x4 DUP1 CALLDATASIZE SUB DUP2 ADD SWAP1 PUSH2 0x274 SWAP2 SWAP1 PUSH2 0x16B0 JUMP JUMPDEST PUSH2 0x630 JUMP JUMPDEST STOP JUMPDEST PUSH2 0x295 PUSH1 0x4 DUP1 CALLDATASIZE SUB DUP2 ADD SWAP1 PUSH2 0x290 SWAP2 SWAP1 PUSH2 0x1516 JUMP JUMPDEST PUSH2 0x6AB JUMP JUMPDEST STOP JUMPDEST PUSH2 0x2B1 PUSH1 0x4 DUP1 CALLDATASIZE SUB DUP2 ADD SWAP1 PUSH2 0x2AC SWAP2 SWAP1 PUSH2 0x16F0 JUMP JUMPDEST PUSH2 0x6E6 JUMP JUMPDEST PUSH1 0x40 MLOAD PUSH2 0x2BE SWAP2 SWAP1 PUSH2 0x186E JUMP JUMPDEST PUSH1 0x40 MLOAD DUP1 SWAP2 SUB SWAP1 RETURN JUMPDEST PUSH2 0x2CF PUSH2 0x729 JUMP JUMPDEST PUSH1 0x40 MLOAD PUSH2 0x2DC SWAP2 SWAP1 PUSH2 0x163C JUMP JUMPDEST PUSH1 0x40 MLOAD DUP1 SWAP2 SUB SWAP1 RETURN JUMPDEST PUSH2 0x2FF PUSH1 0x4 DUP1 CALLDATASIZE SUB DUP2 ADD SWAP1 PUSH2 0x2FA SWAP2 SWAP1 PUSH2 0x1516 JUMP JUMPDEST PUSH2 0x74D JUMP JUMPDEST STOP JUMPDEST PUSH2 0x31B PUSH1 0x4 DUP1 CALLDATASIZE SUB DUP2 ADD SWAP1 PUSH2 0x316 SWAP2 SWAP1 PUSH2 0x19C5 JUMP JUMPDEST PUSH2 0x77A JUMP JUMPDEST PUSH1 0x40 MLOAD PUSH2 0x328 SWAP2 SWAP1 PUSH2 0x14FB JUMP JUMPDEST PUSH1 0x40 MLOAD DUP1 SWAP2 SUB SWAP1 RETURN JUMPDEST PUSH2 0x34B PUSH1 0x4 DUP1 CALLDATASIZE SUB DUP2 ADD SWAP1 PUSH2 0x346 SWAP2 SWAP1 PUSH2 0x16F0 JUMP JUMPDEST PUSH2 0x7BB JUMP JUMPDEST STOP JUMPDEST PUSH2 0x367 PUSH1 0x4 DUP1 CALLDATASIZE SUB DUP2 ADD SWAP1 PUSH2 0x362 SWAP2 SWAP1 PUSH2 0x1516 JUMP JUMPDEST PUSH2 0x7F2 JUMP JUMPDEST STOP JUMPDEST PUSH2 0x371 PUSH2 0x82D JUMP JUMPDEST PUSH1 0x40 MLOAD PUSH2 0x37E SWAP2 SWAP1 PUSH2 0x1601 JUMP JUMPDEST PUSH1 0x40 MLOAD DUP1 SWAP2 SUB SWAP1 RETURN JUMPDEST PUSH2 0x3A1 PUSH1 0x4 DUP1 CALLDATASIZE SUB DUP2 ADD SWAP1 PUSH2 0x39C SWAP2 SWAP1 PUSH2 0x16B0 JUMP JUMPDEST PUSH2 0x868 JUMP JUMPDEST PUSH1 0x40 MLOAD PUSH2 0x3AE SWAP2 SWAP1 PUSH2 0x13FD JUMP JUMPDEST PUSH1 0x40 MLOAD DUP1 SWAP2 SUB SWAP1 RETURN JUMPDEST PUSH2 0x3BF PUSH2 0x8D2 JUMP JUMPDEST PUSH1 0x40 MLOAD PUSH2 0x3CC SWAP2 SWAP1 PUSH2 0x163C JUMP JUMPDEST PUSH1 0x40 MLOAD DUP1 SWAP2 SUB SWAP1 RETURN JUMPDEST PUSH2 0x3EF PUSH1 0x4 DUP1 CALLDATASIZE SUB DUP2 ADD SWAP1 PUSH2 0x3EA SWAP2 SWAP1 PUSH2 0x16F0 JUMP JUMPDEST PUSH2 0x8D9 JUMP JUMPDEST PUSH1 0x40 MLOAD PUSH2 0x402 SWAP8 SWAP7 SWAP6 SWAP5 SWAP4 SWAP3 SWAP2 SWAP1 PUSH2 0x1AA9 JUMP JUMPDEST PUSH1 0x40 MLOAD DUP1 SWAP2 SUB SWAP1 RETURN JUMPDEST PUSH2 0x425 PUSH1 0x4 DUP1 CALLDATASIZE SUB DUP2 ADD SWAP1 PUSH2 0x420 SWAP2 SWAP1 PUSH2 0x16B0 JUMP JUMPDEST PUSH2 0xA78 JUMP JUMPDEST STOP JUMPDEST PUSH2 0x42F PUSH2 0xA9A JUMP JUMPDEST PUSH1 0x40 MLOAD PUSH2 0x43C SWAP2 SWAP1 PUSH2 0x163C JUMP JUMPDEST PUSH1 0x40 MLOAD DUP1 SWAP2 SUB SWAP1 RETURN JUMPDEST PUSH2 0x45F PUSH1 0x4 DUP1 CALLDATASIZE SUB DUP2 ADD SWAP1 PUSH2 0x45A SWAP2 SWAP1 PUSH2 0x16B0 JUMP JUMPDEST PUSH2 0xABE JUMP JUMPDEST STOP JUMPDEST PUSH1 0x0 PUSH32 0x7965DB0B00000000000000000000000000000000000000000000000000000000 PUSH28 0xFFFFFFFFFFFFFFFFFFFFFFFFFFFFFFFFFFFFFFFFFFFFFFFFFFFFFFFF NOT AND DUP3 PUSH28 0xFFFFFFFFFFFFFFFFFFFFFFFFFFFFFFFFFFFFFFFFFFFFFFFFFFFFFFFF NOT AND EQ DUP1 PUSH2 0x4D4 JUMPI POP PUSH2 0x4D3 DUP3 PUSH2 0xADA JUMP JUMPDEST JUMPDEST SWAP1 POP SWAP2 SWAP1 POP JUMP JUMPDEST PUSH1 0x3 PUSH1 0x20 MSTORE DUP2 PUSH1 0x0 MSTORE PUSH1 0x40 PUSH1 0x0 KECCAK256 DUP2 DUP2 SLOAD DUP2 LT PUSH2 0x4F7 JUMPI PUSH1 0x0 DUP1 REVERT JUMPDEST SWAP1 PUSH1 0x0 MSTORE PUSH1 0x20 PUSH1 0x0 KECCAK256 ADD PUSH1 0x0 SWAP2 POP SWAP2 POP POP SLOAD DUP2 JUMP JUMPDEST PUSH1 0x60 PUSH1 0x3 PUSH1 0x0 DUP4 PUSH20 0xFFFFFFFFFFFFFFFFFFFFFFFFFFFFFFFFFFFFFFFF AND PUSH20 0xFFFFFFFFFFFFFFFFFFFFFFFFFFFFFFFFFFFFFFFF AND DUP2 MSTORE PUSH1 0x20 ADD SWAP1 DUP2 MSTORE PUSH1 0x20 ADD PUSH1 0x0 KECCAK256 DUP1 SLOAD DUP1 PUSH1 0x20 MUL PUSH1 0x20 ADD PUSH1 0x40 MLOAD SWAP1 DUP2 ADD PUSH1 0x40 MSTORE DUP1 SWAP3 SWAP2 SWAP1 DUP2 DUP2 MSTORE PUSH1 0x20 ADD DUP3 DUP1 SLOAD DUP1 ISZERO PUSH2 0x597 JUMPI PUSH1 0x20 MUL DUP3 ADD SWAP2 SWAP1 PUSH1 0x0 MSTORE PUSH1 0x20 PUSH1 0x0 KECCAK256 SWAP1 JUMPDEST DUP2 SLOAD DUP2 MSTORE PUSH1 0x20 ADD SWAP1 PUSH1 0x1 ADD SWAP1 DUP1 DUP4 GT PUSH2 0x583 JUMPI JUMPDEST POP POP POP POP POP SWAP1 POP SWAP2 SWAP1 POP JUMP JUMPDEST PUSH32 0xB283A27F4ED4ACF1CF999ABE35A4FCC30815A62996BD2CA14D4A1A695B1B369F DUP2 JUMP JUMPDEST PUSH1 0x0 PUSH1 0x1 PUSH1 0x0 DUP2 SLOAD DUP1 SWAP3 SWAP2 SWAP1 PUSH2 0x5DC SWAP1 PUSH2 0x1B55 JUMP JUMPDEST SWAP2 SWAP1 POP SSTORE POP PUSH1 0x0 PUSH1 0x1 SLOAD SWAP1 POP DUP1 SWAP2 POP POP SWAP1 JUMP JUMPDEST PUSH1 0x0 DUP1 PUSH1 0x0 DUP4 DUP2 MSTORE PUSH1 0x20 ADD SWAP1 DUP2 MSTORE PUSH1 0x20 ADD PUSH1 0x0 KECCAK256 PUSH1 0x1 ADD SLOAD SWAP1 POP SWAP2 SWAP1 POP JUMP JUMPDEST PUSH2 0x617 DUP3 PUSH2 0x5EF JUMP JUMPDEST PUSH2 0x620 DUP2 PUSH2 0xB44 JUMP JUMPDEST PUSH2 0x62A DUP4 DUP4 PUSH2 0xB58 JUMP JUMPDEST POP POP POP POP JUMP JUMPDEST PUSH2 0x638 PUSH2 0xC49 JUMP JUMPDEST PUSH20 0xFFFFFFFFFFFFFFFFFFFFFFFFFFFFFFFFFFFFFFFF AND DUP2 PUSH20 0xFFFFFFFFFFFFFFFFFFFFFFFFFFFFFFFFFFFFFFFF AND EQ PUSH2 0x69C JUMPI PUSH1 0x40 MLOAD PUSH32 0x6697B23200000000000000000000000000000000000000000000000000000000 DUP2 MSTORE PUSH1 0x4 ADD PUSH1 0x40 MLOAD DUP1 SWAP2 SUB SWAP1 REVERT JUMPDEST PUSH2 0x6A6 DUP3 DUP3 PUSH2 0xC51 JUMP JUMPDEST POP POP POP JUMP JUMPDEST PUSH1 0x0 DUP1 SHL PUSH2 0x6B8 DUP2 PUSH2 0xB44 JUMP JUMPDEST PUSH2 0x6E2 PUSH32 0xB283A27F4ED4ACF1CF999ABE35A4FCC30815A62996BD2CA14D4A1A695B1B369F DUP4 PUSH2 0x60E JUMP JUMPDEST POP POP JUMP JUMPDEST PUSH2 0x6EE PUSH2 0x12DE JUMP JUMPDEST PUSH32 0x7725616B8D02C63F5AD5850CC554B9B7678D0B2E3FAD3BD247B7DB69880AD11D PUSH2 0x718 DUP2 PUSH2 0xB44 JUMP JUMPDEST PUSH2 0x721 DUP4 PUSH2 0xD43 JUMP JUMPDEST SWAP2 POP POP SWAP2 SWAP1 POP JUMP JUMPDEST PUSH32 0x386B4A96227FFC4B7BB0B3C432E5406B9099F8736F2DADA86C006A68B79B78DE DUP2 JUMP JUMPDEST PUSH2 0x777 PUSH32 0x386B4A96227FFC4B7BB0B3C432E5406B9099F8736F2DADA86C006A68B79B78DE DUP3 PUSH2 0x60E JUMP JUMPDEST POP JUMP JUMPDEST PUSH1 0x0 PUSH32 0xB283A27F4ED4ACF1CF999ABE35A4FCC30815A62996BD2CA14D4A1A695B1B369F PUSH2 0x7A6 DUP2 PUSH2 0xB44 JUMP JUMPDEST PUSH2 0x7B1 DUP6 DUP6 DUP6 PUSH2 0xF6F JUMP JUMPDEST SWAP2 POP POP SWAP4 SWAP3 POP POP POP JUMP JUMPDEST PUSH32 0x7725616B8D02C63F5AD5850CC554B9B7678D0B2E3FAD3BD247B7DB69880AD11D PUSH2 0x7E5 DUP2 PUSH2 0xB44 JUMP JUMPDEST PUSH2 0x7EE DUP3 PUSH2 0x11B3 JUMP JUMPDEST POP POP JUMP JUMPDEST PUSH1 0x0 DUP1 SHL PUSH2 0x7FF DUP2 PUSH2 0xB44 JUMP JUMPDEST PUSH2 0x829 PUSH32 0x7725616B8D02C63F5AD5850CC554B9B7678D0B2E3FAD3BD247B7DB69880AD11D DUP4 PUSH2 0x60E JUMP JUMPDEST POP POP JUMP JUMPDEST PUSH1 0x60 PUSH32 0x386B4A96227FFC4B7BB0B3C432E5406B9099F8736F2DADA86C006A68B79B78DE PUSH2 0x859 DUP2 PUSH2 0xB44 JUMP JUMPDEST PUSH2 0x862 CALLER PUSH2 0x50C JUMP JUMPDEST SWAP2 POP POP SWAP1 JUMP JUMPDEST PUSH1 0x0 DUP1 PUSH1 0x0 DUP5 DUP2 MSTORE PUSH1 0x20 ADD SWAP1 DUP2 MSTORE PUSH1 0x20 ADD PUSH1 0x0 KECCAK256 PUSH1 0x0 ADD PUSH1 0x0 DUP4 PUSH20 0xFFFFFFFFFFFFFFFFFFFFFFFFFFFFFFFFFFFFFFFF AND PUSH20 0xFFFFFFFFFFFFFFFFFFFFFFFFFFFFFFFFFFFFFFFF AND DUP2 MSTORE PUSH1 0x20 ADD SWAP1 DUP2 MSTORE PUSH1 0x20 ADD PUSH1 0x0 KECCAK256 PUSH1 0x0 SWAP1 SLOAD SWAP1 PUSH2 0x100 EXP SWAP1 DIV PUSH1 0xFF AND SWAP1 POP SWAP3 SWAP2 POP POP JUMP JUMPDEST PUSH1 0x0 DUP1 SHL DUP2 JUMP JUMPDEST PUSH1 0x2 PUSH1 0x20 MSTORE DUP1 PUSH1 0x0 MSTORE PUSH1 0x40 PUSH1 0x0 KECCAK256 PUSH1 0x0 SWAP2 POP SWAP1 POP DUP1 PUSH1 0x0 ADD SLOAD SWAP1 DUP1 PUSH1 0x1 ADD DUP1 SLOAD PUSH2 0x902 SWAP1 PUSH2 0x1BCC JUMP JUMPDEST DUP1 PUSH1 0x1F ADD PUSH1 0x20 DUP1 SWAP2 DIV MUL PUSH1 0x20 ADD PUSH1 0x40 MLOAD SWAP1 DUP2 ADD PUSH1 0x40 MSTORE DUP1 SWAP3 SWAP2 SWAP1 DUP2 DUP2 MSTORE PUSH1 0x20 ADD DUP3 DUP1 SLOAD PUSH2 0x92E SWAP1 PUSH2 0x1BCC JUMP JUMPDEST DUP1 ISZERO PUSH2 0x97B JUMPI DUP1 PUSH1 0x1F LT PUSH2 0x950 JUMPI PUSH2 0x100 DUP1 DUP4 SLOAD DIV MUL DUP4 MSTORE SWAP2 PUSH1 0x20 ADD SWAP2 PUSH2 0x97B JUMP JUMPDEST DUP3 ADD SWAP2 SWAP1 PUSH1 0x0 MSTORE PUSH1 0x20 PUSH1 0x0 KECCAK256 SWAP1 JUMPDEST DUP2 SLOAD DUP2 MSTORE SWAP1 PUSH1 0x1 ADD SWAP1 PUSH1 0x20 ADD DUP1 DUP4 GT PUSH2 0x95E JUMPI DUP3 SWAP1 SUB PUSH1 0x1F AND DUP3 ADD SWAP2 JUMPDEST POP POP POP POP POP SWAP1 DUP1 PUSH1 0x2 ADD PUSH1 0x0 SWAP1 SLOAD SWAP1 PUSH2 0x100 EXP SWAP1 DIV PUSH20 0xFFFFFFFFFFFFFFFFFFFFFFFFFFFFFFFFFFFFFFFF AND SWAP1 DUP1 PUSH1 0x3 ADD PUSH1 0x0 SWAP1 SLOAD SWAP1 PUSH2 0x100 EXP SWAP1 DIV PUSH20 0xFFFFFFFFFFFFFFFFFFFFFFFFFFFFFFFFFFFFFFFF AND SWAP1 DUP1 PUSH1 0x4 ADD DUP1 SLOAD PUSH2 0x9DC SWAP1 PUSH2 0x1BCC JUMP JUMPDEST DUP1 PUSH1 0x1F ADD PUSH1 0x20 DUP1 SWAP2 DIV MUL PUSH1 0x20 ADD PUSH1 0x40 MLOAD SWAP1 DUP2 ADD PUSH1 0x40 MSTORE DUP1 SWAP3 SWAP2 SWAP1 DUP2 DUP2 MSTORE PUSH1 0x20 ADD DUP3 DUP1 SLOAD PUSH2 0xA08 SWAP1 PUSH2 0x1BCC JUMP JUMPDEST DUP1 ISZERO PUSH2 0xA55 JUMPI DUP1 PUSH1 0x1F LT PUSH2 0xA2A JUMPI PUSH2 0x100 DUP1 DUP4 SLOAD DIV MUL DUP4 MSTORE SWAP2 PUSH1 0x20 ADD SWAP2 PUSH2 0xA55 JUMP JUMPDEST DUP3 ADD SWAP2 SWAP1 PUSH1 0x0 MSTORE PUSH1 0x20 PUSH1 0x0 KECCAK256 SWAP1 JUMPDEST DUP2 SLOAD DUP2 MSTORE SWAP1 PUSH1 0x1 ADD SWAP1 PUSH1 0x20 ADD DUP1 DUP4 GT PUSH2 0xA38 JUMPI DUP3 SWAP1 SUB PUSH1 0x1F AND DUP3 ADD SWAP2 JUMPDEST POP POP POP POP POP SWAP1 DUP1 PUSH1 0x5 ADD SLOAD SWAP1 DUP1 PUSH1 0x6 ADD PUSH1 0x0 SWAP1 SLOAD SWAP1 PUSH2 0x100 EXP SWAP1 DIV PUSH1 0xFF AND SWAP1 POP DUP8 JUMP JUMPDEST PUSH2 0xA81 DUP3 PUSH2 0x5EF JUMP JUMPDEST PUSH2 0xA8A DUP2 PUSH2 0xB44 JUMP JUMPDEST PUSH2 0xA94 DUP4 DUP4 PUSH2 0xC51 JUMP JUMPDEST POP POP POP POP JUMP JUMPDEST PUSH32 0x7725616B8D02C63F5AD5850CC554B9B7678D0B2E3FAD3BD247B7DB69880AD11D DUP2 JUMP JUMPDEST PUSH1 0x0 DUP1 SHL PUSH2 0xACB DUP2 PUSH2 0xB44 JUMP JUMPDEST PUSH2 0xAD5 DUP4 DUP4 PUSH2 0xA78 JUMP JUMPDEST POP POP POP JUMP JUMPDEST PUSH1 0x0 PUSH32 0x1FFC9A700000000000000000000000000000000000000000000000000000000 PUSH28 0xFFFFFFFFFFFFFFFFFFFFFFFFFFFFFFFFFFFFFFFFFFFFFFFFFFFFFFFF NOT AND DUP3 PUSH28 0xFFFFFFFFFFFFFFFFFFFFFFFFFFFFFFFFFFFFFFFFFFFFFFFFFFFFFFFF NOT AND EQ SWAP1 POP SWAP2 SWAP1 POP JUMP JUMPDEST PUSH2 0xB55 DUP2 PUSH2 0xB50 PUSH2 0xC49 JUMP JUMPDEST PUSH2 0x128D JUMP JUMPDEST POP JUMP JUMPDEST PUSH1 0x0 PUSH2 0xB64 DUP4 DUP4 PUSH2 0x868 JUMP JUMPDEST PUSH2 0xC3E JUMPI PUSH1 0x1 PUSH1 0x0 DUP1 DUP6 DUP2 MSTORE PUSH1 0x20 ADD SWAP1 DUP2 MSTORE PUSH1 0x20 ADD PUSH1 0x0 KECCAK256 PUSH1 0x0 ADD PUSH1 0x0 DUP5 PUSH20 0xFFFFFFFFFFFFFFFFFFFFFFFFFFFFFFFFFFFFFFFF AND PUSH20 0xFFFFFFFFFFFFFFFFFFFFFFFFFFFFFFFFFFFFFFFF AND DUP2 MSTORE PUSH1 0x20 ADD SWAP1 DUP2 MSTORE PUSH1 0x20 ADD PUSH1 0x0 KECCAK256 PUSH1 0x0 PUSH2 0x100 EXP DUP2 SLOAD DUP2 PUSH1 0xFF MUL NOT AND SWAP1 DUP4 ISZERO ISZERO MUL OR SWAP1 SSTORE POP PUSH2 0xBDB PUSH2 0xC49 JUMP JUMPDEST PUSH20 0xFFFFFFFFFFFFFFFFFFFFFFFFFFFFFFFFFFFFFFFF AND DUP3 PUSH20 0xFFFFFFFFFFFFFFFFFFFFFFFFFFFFFFFFFFFFFFFF AND DUP5 PUSH32 0x2F8788117E7EFF1D82E926EC794901D17C78024A50270940304540A733656F0D PUSH1 0x40 MLOAD PUSH1 0x40 MLOAD DUP1 SWAP2 SUB SWAP1 LOG4 PUSH1 0x1 SWAP1 POP PUSH2 0xC43 JUMP JUMPDEST PUSH1 0x0 SWAP1 POP JUMPDEST SWAP3 SWAP2 POP POP JUMP JUMPDEST PUSH1 0x0 CALLER SWAP1 POP SWAP1 JUMP JUMPDEST PUSH1 0x0 PUSH2 0xC5D DUP4 DUP4 PUSH2 0x868 JUMP JUMPDEST ISZERO PUSH2 0xD38 JUMPI PUSH1 0x0 DUP1 PUSH1 0x0 DUP6 DUP2 MSTORE PUSH1 0x20 ADD SWAP1 DUP2 MSTORE PUSH1 0x20 ADD PUSH1 0x0 KECCAK256 PUSH1 0x0 ADD PUSH1 0x0 DUP5 PUSH20 0xFFFFFFFFFFFFFFFFFFFFFFFFFFFFFFFFFFFFFFFF AND PUSH20 0xFFFFFFFFFFFFFFFFFFFFFFFFFFFFFFFFFFFFFFFF AND DUP2 MSTORE PUSH1 0x20 ADD SWAP1 DUP2 MSTORE PUSH1 0x20 ADD PUSH1 0x0 KECCAK256 PUSH1 0x0 PUSH2 0x100 EXP DUP2 SLOAD DUP2 PUSH1 0xFF MUL NOT AND SWAP1 DUP4 ISZERO ISZERO MUL OR SWAP1 SSTORE POP PUSH2 0xCD5 PUSH2 0xC49 JUMP JUMPDEST PUSH20 0xFFFFFFFFFFFFFFFFFFFFFFFFFFFFFFFFFFFFFFFF AND DUP3 PUSH20 0xFFFFFFFFFFFFFFFFFFFFFFFFFFFFFFFFFFFFFFFF AND DUP5 PUSH32 0xF6391F5C32D9C69D2A47EA670B442974B53935D1EDC7FD64EB21E047A839171B PUSH1 0x40 MLOAD PUSH1 0x40 MLOAD DUP1 SWAP2 SUB SWAP1 LOG4 PUSH1 0x1 SWAP1 POP PUSH2 0xD3D JUMP JUMPDEST PUSH1 0x0 SWAP1 POP JUMPDEST SWAP3 SWAP2 POP POP JUMP JUMPDEST PUSH2 0xD4B PUSH2 0x12DE JUMP JUMPDEST PUSH1 0x2 PUSH1 0x0 DUP4 DUP2 MSTORE PUSH1 0x20 ADD SWAP1 DUP2 MSTORE PUSH1 0x20 ADD PUSH1 0x0 KECCAK256 PUSH1 0x40 MLOAD DUP1 PUSH1 0xE0 ADD PUSH1 0x40 MSTORE SWAP1 DUP2 PUSH1 0x0 DUP3 ADD SLOAD DUP2 MSTORE PUSH1 0x20 ADD PUSH1 0x1 DUP3 ADD DUP1 SLOAD PUSH2 0xD83 SWAP1 PUSH2 0x1BCC JUMP JUMPDEST DUP1 PUSH1 0x1F ADD PUSH1 0x20 DUP1 SWAP2 DIV MUL PUSH1 0x20 ADD PUSH1 0x40 MLOAD SWAP1 DUP2 ADD PUSH1 0x40 MSTORE DUP1 SWAP3 SWAP2 SWAP1 DUP2 DUP2 MSTORE PUSH1 0x20 ADD DUP3 DUP1 SLOAD PUSH2 0xDAF SWAP1 PUSH2 0x1BCC JUMP JUMPDEST DUP1 ISZERO PUSH2 0xDFC JUMPI DUP1 PUSH1 0x1F LT PUSH2 0xDD1 JUMPI PUSH2 0x100 DUP1 DUP4 SLOAD DIV MUL DUP4 MSTORE SWAP2 PUSH1 0x20 ADD SWAP2 PUSH2 0xDFC JUMP JUMPDEST DUP3 ADD SWAP2 SWAP1 PUSH1 0x0 MSTORE PUSH1 0x20 PUSH1 0x0 KECCAK256 SWAP1 JUMPDEST DUP2 SLOAD DUP2 MSTORE SWAP1 PUSH1 0x1 ADD SWAP1 PUSH1 0x20 ADD DUP1 DUP4 GT PUSH2 0xDDF JUMPI DUP3 SWAP1 SUB PUSH1 0x1F AND DUP3 ADD SWAP2 JUMPDEST POP POP POP POP POP DUP2 MSTORE PUSH1 0x20 ADD PUSH1 0x2 DUP3 ADD PUSH1 0x0 SWAP1 SLOAD SWAP1 PUSH2 0x100 EXP SWAP1 DIV PUSH20 0xFFFFFFFFFFFFFFFFFFFFFFFFFFFFFFFFFFFFFFFF AND PUSH20 0xFFFFFFFFFFFFFFFFFFFFFFFFFFFFFFFFFFFFFFFF AND PUSH20 0xFFFFFFFFFFFFFFFFFFFFFFFFFFFFFFFFFFFFFFFF AND DUP2 MSTORE PUSH1 0x20 ADD PUSH1 0x3 DUP3 ADD PUSH1 0x0 SWAP1 SLOAD SWAP1 PUSH2 0x100 EXP SWAP1 DIV PUSH20 0xFFFFFFFFFFFFFFFFFFFFFFFFFFFFFFFFFFFFFFFF AND PUSH20 0xFFFFFFFFFFFFFFFFFFFFFFFFFFFFFFFFFFFFFFFF AND PUSH20 0xFFFFFFFFFFFFFFFFFFFFFFFFFFFFFFFFFFFFFFFF AND DUP2 MSTORE PUSH1 0x20 ADD PUSH1 0x4 DUP3 ADD DUP1 SLOAD PUSH2 0xEC1 SWAP1 PUSH2 0x1BCC JUMP JUMPDEST DUP1 PUSH1 0x1F ADD PUSH1 0x20 DUP1 SWAP2 DIV MUL PUSH1 0x20 ADD PUSH1 0x40 MLOAD SWAP1 DUP2 ADD PUSH1 0x40 MSTORE DUP1 SWAP3 SWAP2 SWAP1 DUP2 DUP2 MSTORE PUSH1 0x20 ADD DUP3 DUP1 SLOAD PUSH2 0xEED SWAP1 PUSH2 0x1BCC JUMP JUMPDEST DUP1 ISZERO PUSH2 0xF3A JUMPI DUP1 PUSH1 0x1F LT PUSH2 0xF0F JUMPI PUSH2 0x100 DUP1 DUP4 SLOAD DIV MUL DUP4 MSTORE SWAP2 PUSH1 0x20 ADD SWAP2 PUSH2 0xF3A JUMP JUMPDEST DUP3 ADD SWAP2 SWAP1 PUSH1 0x0 MSTORE PUSH1 0x20 PUSH1 0x0 KECCAK256 SWAP1 JUMPDEST DUP2 SLOAD DUP2 MSTORE SWAP1 PUSH1 0x1 ADD SWAP1 PUSH1 0x20 ADD DUP1 DUP4 GT PUSH2 0xF1D JUMPI DUP3 SWAP1 SUB PUSH1 0x1F AND DUP3 ADD SWAP2 JUMPDEST POP POP POP POP POP DUP2 MSTORE PUSH1 0x20 ADD PUSH1 0x5 DUP3 ADD SLOAD DUP2 MSTORE PUSH1 0x20 ADD PUSH1 0x6 DUP3 ADD PUSH1 0x0 SWAP1 SLOAD SWAP1 PUSH2 0x100 EXP SWAP1 DIV PUSH1 0xFF AND ISZERO ISZERO ISZERO ISZERO DUP2 MSTORE POP POP SWAP1 POP SWAP2 SWAP1 POP JUMP JUMPDEST PUSH1 0x0 PUSH2 0xF79 PUSH2 0x5C7 JUMP JUMPDEST POP PUSH1 0x0 PUSH1 0x1 SLOAD SWAP1 POP PUSH1 0x40 MLOAD DUP1 PUSH1 0xE0 ADD PUSH1 0x40 MSTORE DUP1 DUP3 DUP2 MSTORE PUSH1 0x20 ADD DUP7 DUP2 MSTORE PUSH1 0x20 ADD CALLER PUSH20 0xFFFFFFFFFFFFFFFFFFFFFFFFFFFFFFFFFFFFFFFF AND DUP2 MSTORE PUSH1 0x20 ADD DUP6 PUSH20 0xFFFFFFFFFFFFFFFFFFFFFFFFFFFFFFFFFFFFFFFF AND DUP2 MSTORE PUSH1 0x20 ADD DUP5 DUP2 MSTORE PUSH1 0x20 ADD TIMESTAMP DUP2 MSTORE PUSH1 0x20 ADD PUSH1 0x0 ISZERO ISZERO DUP2 MSTORE POP PUSH1 0x2 PUSH1 0x0 DUP4 DUP2 MSTORE PUSH1 0x20 ADD SWAP1 DUP2 MSTORE PUSH1 0x20 ADD PUSH1 0x0 KECCAK256 PUSH1 0x0 DUP3 ADD MLOAD DUP2 PUSH1 0x0 ADD SSTORE PUSH1 0x20 DUP3 ADD MLOAD DUP2 PUSH1 0x1 ADD SWAP1 DUP2 PUSH2 0x1015 SWAP2 SWAP1 PUSH2 0x1DA9 JUMP JUMPDEST POP PUSH1 0x40 DUP3 ADD MLOAD DUP2 PUSH1 0x2 ADD PUSH1 0x0 PUSH2 0x100 EXP DUP2 SLOAD DUP2 PUSH20 0xFFFFFFFFFFFFFFFFFFFFFFFFFFFFFFFFFFFFFFFF MUL NOT AND SWAP1 DUP4 PUSH20 0xFFFFFFFFFFFFFFFFFFFFFFFFFFFFFFFFFFFFFFFF AND MUL OR SWAP1 SSTORE POP PUSH1 0x60 DUP3 ADD MLOAD DUP2 PUSH1 0x3 ADD PUSH1 0x0 PUSH2 0x100 EXP DUP2 SLOAD DUP2 PUSH20 0xFFFFFFFFFFFFFFFFFFFFFFFFFFFFFFFFFFFFFFFF MUL NOT AND SWAP1 DUP4 PUSH20 0xFFFFFFFFFFFFFFFFFFFFFFFFFFFFFFFFFFFFFFFF AND MUL OR SWAP1 SSTORE POP PUSH1 0x80 DUP3 ADD MLOAD DUP2 PUSH1 0x4 ADD SWAP1 DUP2 PUSH2 0x10B9 SWAP2 SWAP1 PUSH2 0x1DA9 JUMP JUMPDEST POP PUSH1 0xA0 DUP3 ADD MLOAD DUP2 PUSH1 0x5 ADD SSTORE PUSH1 0xC0 DUP3 ADD MLOAD DUP2 PUSH1 0x6 ADD PUSH1 0x0 PUSH2 0x100 EXP DUP2 SLOAD DUP2 PUSH1 0xFF MUL NOT AND SWAP1 DUP4 ISZERO ISZERO MUL OR SWAP1 SSTORE POP SWAP1 POP POP PUSH1 0x3 PUSH1 0x0 DUP6 PUSH20 0xFFFFFFFFFFFFFFFFFFFFFFFFFFFFFFFFFFFFFFFF AND PUSH20 0xFFFFFFFFFFFFFFFFFFFFFFFFFFFFFFFFFFFFFFFF AND DUP2 MSTORE PUSH1 0x20 ADD SWAP1 DUP2 MSTORE PUSH1 0x20 ADD PUSH1 0x0 KECCAK256 DUP2 SWAP1 DUP1 PUSH1 0x1 DUP2 SLOAD ADD DUP1 DUP3 SSTORE DUP1 SWAP2 POP POP PUSH1 0x1 SWAP1 SUB SWAP1 PUSH1 0x0 MSTORE PUSH1 0x20 PUSH1 0x0 KECCAK256 ADD PUSH1 0x0 SWAP1 SWAP2 SWAP1 SWAP2 SWAP1 SWAP2 POP SSTORE DUP4 PUSH20 0xFFFFFFFFFFFFFFFFFFFFFFFFFFFFFFFFFFFFFFFF AND CALLER PUSH20 0xFFFFFFFFFFFFFFFFFFFFFFFFFFFFFFFFFFFFFFFF AND DUP3 PUSH32 0x264A2FCFF58F980486245F7D5CA8BB277EDA06B4AF67E6776DEC93E02FAF78A0 PUSH1 0x40 MLOAD PUSH1 0x40 MLOAD DUP1 SWAP2 SUB SWAP1 LOG4 DUP1 SWAP2 POP POP SWAP4 SWAP3 POP POP POP JUMP JUMPDEST PUSH1 0x2 PUSH1 0x0 DUP3 DUP2 MSTORE PUSH1 0x20 ADD SWAP1 DUP2 MSTORE PUSH1 0x20 ADD PUSH1 0x0 KECCAK256 PUSH1 0x6 ADD PUSH1 0x0 SWAP1 SLOAD SWAP1 PUSH2 0x100 EXP SWAP1 DIV PUSH1 0xFF AND ISZERO PUSH2 0x1217 JUMPI PUSH1 0x40 MLOAD PUSH32 0x8C379A000000000000000000000000000000000000000000000000000000000 DUP2 MSTORE PUSH1 0x4 ADD PUSH2 0x120E SWAP1 PUSH2 0x1EC7 JUMP JUMPDEST PUSH1 0x40 MLOAD DUP1 SWAP2 SUB SWAP1 REVERT JUMPDEST PUSH1 0x1 PUSH1 0x2 PUSH1 0x0 DUP4 DUP2 MSTORE PUSH1 0x20 ADD SWAP1 DUP2 MSTORE PUSH1 0x20 ADD PUSH1 0x0 KECCAK256 PUSH1 0x6 ADD PUSH1 0x0 PUSH2 0x100 EXP DUP2 SLOAD DUP2 PUSH1 0xFF MUL NOT AND SWAP1 DUP4 ISZERO ISZERO MUL OR SWAP1 SSTORE POP CALLER PUSH20 0xFFFFFFFFFFFFFFFFFFFFFFFFFFFFFFFFFFFFFFFF AND DUP2 PUSH32 0x6966A20715F4337F34FD08D8AA190A3C343CF21AD67677B447632194D8D60308 PUSH1 0x40 MLOAD PUSH1 0x40 MLOAD DUP1 SWAP2 SUB SWAP1 LOG3 POP JUMP JUMPDEST PUSH2 0x1297 DUP3 DUP3 PUSH2 0x868 JUMP JUMPDEST PUSH2 0x12DA JUMPI DUP1 DUP3 PUSH1 0x40 MLOAD PUSH32 0xE2517D3F00000000000000000000000000000000000000000000000000000000 DUP2 MSTORE PUSH1 0x4 ADD PUSH2 0x12D1 SWAP3 SWAP2 SWAP1 PUSH2 0x1EE7 JUMP JUMPDEST PUSH1 0x40 MLOAD DUP1 SWAP2 SUB SWAP1 REVERT JUMPDEST POP POP JUMP JUMPDEST PUSH1 0x40 MLOAD DUP1 PUSH1 0xE0 ADD PUSH1 0x40 MSTORE DUP1 PUSH1 0x0 DUP2 MSTORE PUSH1 0x20 ADD PUSH1 0x60 DUP2 MSTORE PUSH1 0x20 ADD PUSH1 0x0 PUSH20 0xFFFFFFFFFFFFFFFFFFFFFFFFFFFFFFFFFFFFFFFF AND DUP2 MSTORE PUSH1 0x20 ADD PUSH1 0x0 PUSH20 0xFFFFFFFFFFFFFFFFFFFFFFFFFFFFFFFFFFFFFFFF AND DUP2 MSTORE PUSH1 0x20 ADD PUSH1 0x60 DUP2 MSTORE PUSH1 0x20 ADD PUSH1 0x0 DUP2 MSTORE PUSH1 0x20 ADD PUSH1 0x0 ISZERO ISZERO DUP2 MSTORE POP SWAP1 JUMP JUMPDEST PUSH1 0x0 PUSH1 0x40 MLOAD SWAP1 POP SWAP1 JUMP JUMPDEST PUSH1 0x0 DUP1 REVERT JUMPDEST PUSH1 0x0 DUP1 REVERT JUMPDEST PUSH1 0x0 PUSH32 0xFFFFFFFF00000000000000000000000000000000000000000000000000000000 DUP3 AND SWAP1 POP SWAP2 SWAP1 POP JUMP JUMPDEST PUSH2 0x1392 DUP2 PUSH2 0x135D JUMP JUMPDEST DUP2 EQ PUSH2 0x139D JUMPI PUSH1 0x0 DUP1 REVERT JUMPDEST POP JUMP JUMPDEST PUSH1 0x0 DUP2 CALLDATALOAD SWAP1 POP PUSH2 0x13AF DUP2 PUSH2 0x1389 JUMP JUMPDEST SWAP3 SWAP2 POP POP JUMP JUMPDEST PUSH1 0x0 PUSH1 0x20 DUP3 DUP5 SUB SLT ISZERO PUSH2 0x13CB JUMPI PUSH2 0x13CA PUSH2 0x1353 JUMP JUMPDEST JUMPDEST PUSH1 0x0 PUSH2 0x13D9 DUP5 DUP3 DUP6 ADD PUSH2 0x13A0 JUMP JUMPDEST SWAP2 POP POP SWAP3 SWAP2 POP POP JUMP JUMPDEST PUSH1 0x0 DUP2 ISZERO ISZERO SWAP1 POP SWAP2 SWAP1 POP JUMP JUMPDEST PUSH2 0x13F7 DUP2 PUSH2 0x13E2 JUMP JUMPDEST DUP3 MSTORE POP POP JUMP JUMPDEST PUSH1 0x0 PUSH1 0x20 DUP3 ADD SWAP1 POP PUSH2 0x1412 PUSH1 0x0 DUP4 ADD DUP5 PUSH2 0x13EE JUMP JUMPDEST SWAP3 SWAP2 POP POP JUMP JUMPDEST PUSH1 0x0 PUSH20 0xFFFFFFFFFFFFFFFFFFFFFFFFFFFFFFFFFFFFFFFF DUP3 AND SWAP1 POP SWAP2 SWAP1 POP JUMP JUMPDEST PUSH1 0x0 PUSH2 0x1443 DUP3 PUSH2 0x1418 JUMP JUMPDEST SWAP1 POP SWAP2 SWAP1 POP JUMP JUMPDEST PUSH2 0x1453 DUP2 PUSH2 0x1438 JUMP JUMPDEST DUP2 EQ PUSH2 0x145E JUMPI PUSH1 0x0 DUP1 REVERT JUMPDEST POP JUMP JUMPDEST PUSH1 0x0 DUP2 CALLDATALOAD SWAP1 POP PUSH2 0x1470 DUP2 PUSH2 0x144A JUMP JUMPDEST SWAP3 SWAP2 POP POP JUMP JUMPDEST PUSH1 0x0 DUP2 SWAP1 POP SWAP2 SWAP1 POP JUMP JUMPDEST PUSH2 0x1489 DUP2 PUSH2 0x1476 JUMP JUMPDEST DUP2 EQ PUSH2 0x1494 JUMPI PUSH1 0x0 DUP1 REVERT JUMPDEST POP JUMP JUMPDEST PUSH1 0x0 DUP2 CALLDATALOAD SWAP1 POP PUSH2 0x14A6 DUP2 PUSH2 0x1480 JUMP JUMPDEST SWAP3 SWAP2 POP POP JUMP JUMPDEST PUSH1 0x0 DUP1 PUSH1 0x40 DUP4 DUP6 SUB SLT ISZERO PUSH2 0x14C3 JUMPI PUSH2 0x14C2 PUSH2 0x1353 JUMP JUMPDEST JUMPDEST PUSH1 0x0 PUSH2 0x14D1 DUP6 DUP3 DUP7 ADD PUSH2 0x1461 JUMP JUMPDEST SWAP3 POP POP PUSH1 0x20 PUSH2 0x14E2 DUP6 DUP3 DUP7 ADD PUSH2 0x1497 JUMP JUMPDEST SWAP2 POP POP SWAP3 POP SWAP3 SWAP1 POP JUMP JUMPDEST PUSH2 0x14F5 DUP2 PUSH2 0x1476 JUMP JUMPDEST DUP3 MSTORE POP POP JUMP JUMPDEST PUSH1 0x0 PUSH1 0x20 DUP3 ADD SWAP1 POP PUSH2 0x1510 PUSH1 0x0 DUP4 ADD DUP5 PUSH2 0x14EC JUMP JUMPDEST SWAP3 SWAP2 POP POP JUMP JUMPDEST PUSH1 0x0 PUSH1 0x20 DUP3 DUP5 SUB SLT ISZERO PUSH2 0x152C JUMPI PUSH2 0x152B PUSH2 0x1353 JUMP JUMPDEST JUMPDEST PUSH1 0x0 PUSH2 0x153A DUP5 DUP3 DUP6 ADD PUSH2 0x1461 JUMP JUMPDEST SWAP2 POP POP SWAP3 SWAP2 POP POP JUMP JUMPDEST PUSH1 0x0 DUP2 MLOAD SWAP1 POP SWAP2 SWAP1 POP JUMP JUMPDEST PUSH1 0x0 DUP3 DUP3 MSTORE PUSH1 0x20 DUP3 ADD SWAP1 POP SWAP3 SWAP2 POP POP JUMP JUMPDEST PUSH1 0x0 DUP2 SWAP1 POP PUSH1 0x20 DUP3 ADD SWAP1 POP SWAP2 SWAP1 POP JUMP JUMPDEST PUSH2 0x1578 DUP2 PUSH2 0x1476 JUMP JUMPDEST DUP3 MSTORE POP POP JUMP JUMPDEST PUSH1 0x0 PUSH2 0x158A DUP4 DUP4 PUSH2 0x156F JUMP JUMPDEST PUSH1 0x20 DUP4 ADD SWAP1 POP SWAP3 SWAP2 POP POP JUMP JUMPDEST PUSH1 0x0 PUSH1 0x20 DUP3 ADD SWAP1 POP SWAP2 SWAP1 POP JUMP JUMPDEST PUSH1 0x0 PUSH2 0x15AE DUP3 PUSH2 0x1543 JUMP JUMPDEST PUSH2 0x15B8 DUP2 DUP6 PUSH2 0x154E JUMP JUMPDEST SWAP4 POP PUSH2 0x15C3 DUP4 PUSH2 0x155F JUMP JUMPDEST DUP1 PUSH1 0x0 JUMPDEST DUP4 DUP2 LT ISZERO PUSH2 0x15F4 JUMPI DUP2 MLOAD PUSH2 0x15DB DUP9 DUP3 PUSH2 0x157E JUMP JUMPDEST SWAP8 POP PUSH2 0x15E6 DUP4 PUSH2 0x1596 JUMP JUMPDEST SWAP3 POP POP PUSH1 0x1 DUP2 ADD SWAP1 POP PUSH2 0x15C7 JUMP JUMPDEST POP DUP6 SWAP4 POP POP POP POP SWAP3 SWAP2 POP POP JUMP JUMPDEST PUSH1 0x0 PUSH1 0x20 DUP3 ADD SWAP1 POP DUP2 DUP2 SUB PUSH1 0x0 DUP4 ADD MSTORE PUSH2 0x161B DUP2 DUP5 PUSH2 0x15A3 JUMP JUMPDEST SWAP1 POP SWAP3 SWAP2 POP POP JUMP JUMPDEST PUSH1 0x0 DUP2 SWAP1 POP SWAP2 SWAP1 POP JUMP JUMPDEST PUSH2 0x1636 DUP2 PUSH2 0x1623 JUMP JUMPDEST DUP3 MSTORE POP POP JUMP JUMPDEST PUSH1 0x0 PUSH1 0x20 DUP3 ADD SWAP1 POP PUSH2 0x1651 PUSH1 0x0 DUP4 ADD DUP5 PUSH2 0x162D JUMP JUMPDEST SWAP3 SWAP2 POP POP JUMP JUMPDEST PUSH2 0x1660 DUP2 PUSH2 0x1623 JUMP JUMPDEST DUP2 EQ PUSH2 0x166B JUMPI PUSH1 0x0 DUP1 REVERT JUMPDEST POP JUMP JUMPDEST PUSH1 0x0 DUP2 CALLDATALOAD SWAP1 POP PUSH2 0x167D DUP2 PUSH2 0x1657 JUMP JUMPDEST SWAP3 SWAP2 POP POP JUMP JUMPDEST PUSH1 0x0 PUSH1 0x20 DUP3 DUP5 SUB SLT ISZERO PUSH2 0x1699 JUMPI PUSH2 0x1698 PUSH2 0x1353 JUMP JUMPDEST JUMPDEST PUSH1 0x0 PUSH2 0x16A7 DUP5 DUP3 DUP6 ADD PUSH2 0x166E JUMP JUMPDEST SWAP2 POP POP SWAP3 SWAP2 POP POP JUMP JUMPDEST PUSH1 0x0 DUP1 PUSH1 0x40 DUP4 DUP6 SUB SLT ISZERO PUSH2 0x16C7 JUMPI PUSH2 0x16C6 PUSH2 0x1353 JUMP JUMPDEST JUMPDEST PUSH1 0x0 PUSH2 0x16D5 DUP6 DUP3 DUP7 ADD PUSH2 0x166E JUMP JUMPDEST SWAP3 POP POP PUSH1 0x20 PUSH2 0x16E6 DUP6 DUP3 DUP7 ADD PUSH2 0x1461 JUMP JUMPDEST SWAP2 POP POP SWAP3 POP SWAP3 SWAP1 POP JUMP JUMPDEST PUSH1 0x0 PUSH1 0x20 DUP3 DUP5 SUB SLT ISZERO PUSH2 0x1706 JUMPI PUSH2 0x1705 PUSH2 0x1353 JUMP JUMPDEST JUMPDEST PUSH1 0x0 PUSH2 0x1714 DUP5 DUP3 DUP6 ADD PUSH2 0x1497 JUMP JUMPDEST SWAP2 POP POP SWAP3 SWAP2 POP POP JUMP JUMPDEST PUSH1 0x0 DUP2 MLOAD SWAP1 POP SWAP2 SWAP1 POP JUMP JUMPDEST PUSH1 0x0 DUP3 DUP3 MSTORE PUSH1 0x20 DUP3 ADD SWAP1 POP SWAP3 SWAP2 POP POP JUMP JUMPDEST PUSH1 0x0 JUMPDEST DUP4 DUP2 LT ISZERO PUSH2 0x1757 JUMPI DUP1 DUP3 ADD MLOAD DUP2 DUP5 ADD MSTORE PUSH1 0x20 DUP2 ADD SWAP1 POP PUSH2 0x173C JUMP JUMPDEST PUSH1 0x0 DUP5 DUP5 ADD MSTORE POP POP POP POP JUMP JUMPDEST PUSH1 0x0 PUSH1 0x1F NOT PUSH1 0x1F DUP4 ADD AND SWAP1 POP SWAP2 SWAP1 POP JUMP JUMPDEST PUSH1 0x0 PUSH2 0x177F DUP3 PUSH2 0x171D JUMP JUMPDEST PUSH2 0x1789 DUP2 DUP6 PUSH2 0x1728 JUMP JUMPDEST SWAP4 POP PUSH2 0x1799 DUP2 DUP6 PUSH1 0x20 DUP7 ADD PUSH2 0x1739 JUMP JUMPDEST PUSH2 0x17A2 DUP2 PUSH2 0x1763 JUMP JUMPDEST DUP5 ADD SWAP2 POP POP SWAP3 SWAP2 POP POP JUMP JUMPDEST PUSH2 0x17B6 DUP2 PUSH2 0x1438 JUMP JUMPDEST DUP3 MSTORE POP POP JUMP JUMPDEST PUSH2 0x17C5 DUP2 PUSH2 0x13E2 JUMP JUMPDEST DUP3 MSTORE POP POP JUMP JUMPDEST PUSH1 0x0 PUSH1 0xE0 DUP4 ADD PUSH1 0x0 DUP4 ADD MLOAD PUSH2 0x17E3 PUSH1 0x0 DUP7 ADD DUP3 PUSH2 0x156F JUMP JUMPDEST POP PUSH1 0x20 DUP4 ADD MLOAD DUP5 DUP3 SUB PUSH1 0x20 DUP7 ADD MSTORE PUSH2 0x17FB DUP3 DUP3 PUSH2 0x1774 JUMP JUMPDEST SWAP2 POP POP PUSH1 0x40 DUP4 ADD MLOAD PUSH2 0x1810 PUSH1 0x40 DUP7 ADD DUP3 PUSH2 0x17AD JUMP JUMPDEST POP PUSH1 0x60 DUP4 ADD MLOAD PUSH2 0x1823 PUSH1 0x60 DUP7 ADD DUP3 PUSH2 0x17AD JUMP JUMPDEST POP PUSH1 0x80 DUP4 ADD MLOAD DUP5 DUP3 SUB PUSH1 0x80 DUP7 ADD MSTORE PUSH2 0x183B DUP3 DUP3 PUSH2 0x1774 JUMP JUMPDEST SWAP2 POP POP PUSH1 0xA0 DUP4 ADD MLOAD PUSH2 0x1850 PUSH1 0xA0 DUP7 ADD DUP3 PUSH2 0x156F JUMP JUMPDEST POP PUSH1 0xC0 DUP4 ADD MLOAD PUSH2 0x1863 PUSH1 0xC0 DUP7 ADD DUP3 PUSH2 0x17BC JUMP JUMPDEST POP DUP1 SWAP2 POP POP SWAP3 SWAP2 POP POP JUMP JUMPDEST PUSH1 0x0 PUSH1 0x20 DUP3 ADD SWAP1 POP DUP2 DUP2 SUB PUSH1 0x0 DUP4 ADD MSTORE PUSH2 0x1888 DUP2 DUP5 PUSH2 0x17CB JUMP JUMPDEST SWAP1 POP SWAP3 SWAP2 POP POP JUMP JUMPDEST PUSH1 0x0 DUP1 REVERT JUMPDEST PUSH1 0x0 DUP1 REVERT JUMPDEST PUSH32 0x4E487B7100000000000000000000000000000000000000000000000000000000 PUSH1 0x0 MSTORE PUSH1 0x41 PUSH1 0x4 MSTORE PUSH1 0x24 PUSH1 0x0 REVERT JUMPDEST PUSH2 0x18D2 DUP3 PUSH2 0x1763 JUMP JUMPDEST DUP2 ADD DUP2 DUP2 LT PUSH8 0xFFFFFFFFFFFFFFFF DUP3 GT OR ISZERO PUSH2 0x18F1 JUMPI PUSH2 0x18F0 PUSH2 0x189A JUMP JUMPDEST JUMPDEST DUP1 PUSH1 0x40 MSTORE POP POP POP JUMP JUMPDEST PUSH1 0x0 PUSH2 0x1904 PUSH2 0x1349 JUMP JUMPDEST SWAP1 POP PUSH2 0x1910 DUP3 DUP3 PUSH2 0x18C9 JUMP JUMPDEST SWAP2 SWAP1 POP JUMP JUMPDEST PUSH1 0x0 PUSH8 0xFFFFFFFFFFFFFFFF DUP3 GT ISZERO PUSH2 0x1930 JUMPI PUSH2 0x192F PUSH2 0x189A JUMP JUMPDEST JUMPDEST PUSH2 0x1939 DUP3 PUSH2 0x1763 JUMP JUMPDEST SWAP1 POP PUSH1 0x20 DUP2 ADD SWAP1 POP SWAP2 SWAP1 POP JUMP JUMPDEST DUP3 DUP2 DUP4 CALLDATACOPY PUSH1 0x0 DUP4 DUP4 ADD MSTORE POP POP POP JUMP JUMPDEST PUSH1 0x0 PUSH2 0x1968 PUSH2 0x1963 DUP5 PUSH2 0x1915 JUMP JUMPDEST PUSH2 0x18FA JUMP JUMPDEST SWAP1 POP DUP3 DUP2 MSTORE PUSH1 0x20 DUP2 ADD DUP5 DUP5 DUP5 ADD GT ISZERO PUSH2 0x1984 JUMPI PUSH2 0x1983 PUSH2 0x1895 JUMP JUMPDEST JUMPDEST PUSH2 0x198F DUP5 DUP3 DUP6 PUSH2 0x1946 JUMP JUMPDEST POP SWAP4 SWAP3 POP POP POP JUMP JUMPDEST PUSH1 0x0 DUP3 PUSH1 0x1F DUP4 ADD SLT PUSH2 0x19AC JUMPI PUSH2 0x19AB PUSH2 0x1890 JUMP JUMPDEST JUMPDEST DUP2 CALLDATALOAD PUSH2 0x19BC DUP5 DUP3 PUSH1 0x20 DUP7 ADD PUSH2 0x1955 JUMP JUMPDEST SWAP2 POP POP SWAP3 SWAP2 POP POP JUMP JUMPDEST PUSH1 0x0 DUP1 PUSH1 0x0 PUSH1 0x60 DUP5 DUP7 SUB SLT ISZERO PUSH2 0x19DE JUMPI PUSH2 0x19DD PUSH2 0x1353 JUMP JUMPDEST JUMPDEST PUSH1 0x0 DUP5 ADD CALLDATALOAD PUSH8 0xFFFFFFFFFFFFFFFF DUP2 GT ISZERO PUSH2 0x19FC JUMPI PUSH2 0x19FB PUSH2 0x1358 JUMP JUMPDEST JUMPDEST PUSH2 0x1A08 DUP7 DUP3 DUP8 ADD PUSH2 0x1997 JUMP JUMPDEST SWAP4 POP POP PUSH1 0x20 PUSH2 0x1A19 DUP7 DUP3 DUP8 ADD PUSH2 0x1461 JUMP JUMPDEST SWAP3 POP POP PUSH1 0x40 DUP5 ADD CALLDATALOAD PUSH8 0xFFFFFFFFFFFFFFFF DUP2 GT ISZERO PUSH2 0x1A3A JUMPI PUSH2 0x1A39 PUSH2 0x1358 JUMP JUMPDEST JUMPDEST PUSH2 0x1A46 DUP7 DUP3 DUP8 ADD PUSH2 0x1997 JUMP JUMPDEST SWAP2 POP POP SWAP3 POP SWAP3 POP SWAP3 JUMP JUMPDEST PUSH1 0x0 DUP3 DUP3 MSTORE PUSH1 0x20 DUP3 ADD SWAP1 POP SWAP3 SWAP2 POP POP JUMP JUMPDEST PUSH1 0x0 PUSH2 0x1A6C DUP3 PUSH2 0x171D JUMP JUMPDEST PUSH2 0x1A76 DUP2 DUP6 PUSH2 0x1A50 JUMP JUMPDEST SWAP4 POP PUSH2 0x1A86 DUP2 DUP6 PUSH1 0x20 DUP7 ADD PUSH2 0x1739 JUMP JUMPDEST PUSH2 0x1A8F DUP2 PUSH2 0x1763 JUMP JUMPDEST DUP5 ADD SWAP2 POP POP SWAP3 SWAP2 POP POP JUMP JUMPDEST PUSH2 0x1AA3 DUP2 PUSH2 0x1438 JUMP JUMPDEST DUP3 MSTORE POP POP JUMP JUMPDEST PUSH1 0x0 PUSH1 0xE0 DUP3 ADD SWAP1 POP PUSH2 0x1ABE PUSH1 0x0 DUP4 ADD DUP11 PUSH2 0x14EC JUMP JUMPDEST DUP2 DUP2 SUB PUSH1 0x20 DUP4 ADD MSTORE PUSH2 0x1AD0 DUP2 DUP10 PUSH2 0x1A61 JUMP JUMPDEST SWAP1 POP PUSH2 0x1ADF PUSH1 0x40 DUP4 ADD DUP9 PUSH2 0x1A9A JUMP JUMPDEST PUSH2 0x1AEC PUSH1 0x60 DUP4 ADD DUP8 PUSH2 0x1A9A JUMP JUMPDEST DUP2 DUP2 SUB PUSH1 0x80 DUP4 ADD MSTORE PUSH2 0x1AFE DUP2 DUP7 PUSH2 0x1A61 JUMP JUMPDEST SWAP1 POP PUSH2 0x1B0D PUSH1 0xA0 DUP4 ADD DUP6 PUSH2 0x14EC JUMP JUMPDEST PUSH2 0x1B1A PUSH1 0xC0 DUP4 ADD DUP5 PUSH2 0x13EE JUMP JUMPDEST SWAP9 SWAP8 POP POP POP POP POP POP POP POP JUMP JUMPDEST PUSH32 0x4E487B7100000000000000000000000000000000000000000000000000000000 PUSH1 0x0 MSTORE PUSH1 0x11 PUSH1 0x4 MSTORE PUSH1 0x24 PUSH1 0x0 REVERT JUMPDEST PUSH1 0x0 PUSH2 0x1B60 DUP3 PUSH2 0x1476 JUMP JUMPDEST SWAP2 POP PUSH32 0xFFFFFFFFFFFFFFFFFFFFFFFFFFFFFFFFFFFFFFFFFFFFFFFFFFFFFFFFFFFFFFFF DUP3 SUB PUSH2 0x1B92 JUMPI PUSH2 0x1B91 PUSH2 0x1B26 JUMP JUMPDEST JUMPDEST PUSH1 0x1 DUP3 ADD SWAP1 POP SWAP2 SWAP1 POP JUMP JUMPDEST PUSH32 0x4E487B7100000000000000000000000000000000000000000000000000000000 PUSH1 0x0 MSTORE PUSH1 0x22 PUSH1 0x4 MSTORE PUSH1 0x24 PUSH1 0x0 REVERT JUMPDEST PUSH1 0x0 PUSH1 0x2 DUP3 DIV SWAP1 POP PUSH1 0x1 DUP3 AND DUP1 PUSH2 0x1BE4 JUMPI PUSH1 0x7F DUP3 AND SWAP2 POP JUMPDEST PUSH1 0x20 DUP3 LT DUP2 SUB PUSH2 0x1BF7 JUMPI PUSH2 0x1BF6 PUSH2 0x1B9D JUMP JUMPDEST JUMPDEST POP SWAP2 SWAP1 POP JUMP JUMPDEST PUSH1 0x0 DUP2 SWAP1 POP DUP2 PUSH1 0x0 MSTORE PUSH1 0x20 PUSH1 0x0 KECCAK256 SWAP1 POP SWAP2 SWAP1 POP JUMP JUMPDEST PUSH1 0x0 PUSH1 0x20 PUSH1 0x1F DUP4 ADD DIV SWAP1 POP SWAP2 SWAP1 POP JUMP JUMPDEST PUSH1 0x0 DUP3 DUP3 SHL SWAP1 POP SWAP3 SWAP2 POP POP JUMP JUMPDEST PUSH1 0x0 PUSH1 0x8 DUP4 MUL PUSH2 0x1C5F PUSH32 0xFFFFFFFFFFFFFFFFFFFFFFFFFFFFFFFFFFFFFFFFFFFFFFFFFFFFFFFFFFFFFFFF DUP3 PUSH2 0x1C22 JUMP JUMPDEST PUSH2 0x1C69 DUP7 DUP4 PUSH2 0x1C22 JUMP JUMPDEST SWAP6 POP DUP1 NOT DUP5 AND SWAP4 POP DUP1 DUP7 AND DUP5 OR SWAP3 POP POP POP SWAP4 SWAP3 POP POP POP JUMP JUMPDEST PUSH1 0x0 DUP2 SWAP1 POP SWAP2 SWAP1 POP JUMP JUMPDEST PUSH1 0x0 PUSH2 0x1CA6 PUSH2 0x1CA1 PUSH2 0x1C9C DUP5 PUSH2 0x1476 JUMP JUMPDEST PUSH2 0x1C81 JUMP JUMPDEST PUSH2 0x1476 JUMP JUMPDEST SWAP1 POP SWAP2 SWAP1 POP JUMP JUMPDEST PUSH1 0x0 DUP2 SWAP1 POP SWAP2 SWAP1 POP JUMP JUMPDEST PUSH2 0x1CC0 DUP4 PUSH2 0x1C8B JUMP JUMPDEST PUSH2 0x1CD4 PUSH2 0x1CCC DUP3 PUSH2 0x1CAD JUMP JUMPDEST DUP5 DUP5 SLOAD PUSH2 0x1C2F JUMP JUMPDEST DUP3 SSTORE POP POP POP POP JUMP JUMPDEST PUSH1 0x0 SWAP1 JUMP JUMPDEST PUSH2 0x1CE9 PUSH2 0x1CDC JUMP JUMPDEST PUSH2 0x1CF4 DUP2 DUP5 DUP5 PUSH2 0x1CB7 JUMP JUMPDEST POP POP POP JUMP JUMPDEST JUMPDEST DUP2 DUP2 LT ISZERO PUSH2 0x1D18 JUMPI PUSH2 0x1D0D PUSH1 0x0 DUP3 PUSH2 0x1CE1 JUMP JUMPDEST PUSH1 0x1 DUP2 ADD SWAP1 POP PUSH2 0x1CFA JUMP JUMPDEST POP POP JUMP JUMPDEST PUSH1 0x1F DUP3 GT ISZERO PUSH2 0x1D5D JUMPI PUSH2 0x1D2E DUP2 PUSH2 0x1BFD JUMP JUMPDEST PUSH2 0x1D37 DUP5 PUSH2 0x1C12 JUMP JUMPDEST DUP2 ADD PUSH1 0x20 DUP6 LT ISZERO PUSH2 0x1D46 JUMPI DUP2 SWAP1 POP JUMPDEST PUSH2 0x1D5A PUSH2 0x1D52 DUP6 PUSH2 0x1C12 JUMP JUMPDEST DUP4 ADD DUP3 PUSH2 0x1CF9 JUMP JUMPDEST POP POP JUMPDEST POP POP POP JUMP JUMPDEST PUSH1 0x0 DUP3 DUP3 SHR SWAP1 POP SWAP3 SWAP2 POP POP JUMP JUMPDEST PUSH1 0x0 PUSH2 0x1D80 PUSH1 0x0 NOT DUP5 PUSH1 0x8 MUL PUSH2 0x1D62 JUMP JUMPDEST NOT DUP1 DUP4 AND SWAP2 POP POP SWAP3 SWAP2 POP POP JUMP JUMPDEST PUSH1 0x0 PUSH2 0x1D99 DUP4 DUP4 PUSH2 0x1D6F JUMP JUMPDEST SWAP2 POP DUP3 PUSH1 0x2 MUL DUP3 OR SWAP1 POP SWAP3 SWAP2 POP POP JUMP JUMPDEST PUSH2 0x1DB2 DUP3 PUSH2 0x171D JUMP JUMPDEST PUSH8 0xFFFFFFFFFFFFFFFF DUP2 GT ISZERO PUSH2 0x1DCB JUMPI PUSH2 0x1DCA PUSH2 0x189A JUMP JUMPDEST JUMPDEST PUSH2 0x1DD5 DUP3 SLOAD PUSH2 0x1BCC JUMP JUMPDEST PUSH2 0x1DE0 DUP3 DUP3 DUP6 PUSH2 0x1D1C JUMP JUMPDEST PUSH1 0x0 PUSH1 0x20 SWAP1 POP PUSH1 0x1F DUP4 GT PUSH1 0x1 DUP2 EQ PUSH2 0x1E13 JUMPI PUSH1 0x0 DUP5 ISZERO PUSH2 0x1E01 JUMPI DUP3 DUP8 ADD MLOAD SWAP1 POP JUMPDEST PUSH2 0x1E0B DUP6 DUP3 PUSH2 0x1D8D JUMP JUMPDEST DUP7 SSTORE POP PUSH2 0x1E73 JUMP JUMPDEST PUSH1 0x1F NOT DUP5 AND PUSH2 0x1E21 DUP7 PUSH2 0x1BFD JUMP JUMPDEST PUSH1 0x0 JUMPDEST DUP3 DUP2 LT ISZERO PUSH2 0x1E49 JUMPI DUP5 DUP10 ADD MLOAD DUP3 SSTORE PUSH1 0x1 DUP3 ADD SWAP2 POP PUSH1 0x20 DUP6 ADD SWAP5 POP PUSH1 0x20 DUP2 ADD SWAP1 POP PUSH2 0x1E24 JUMP JUMPDEST DUP7 DUP4 LT ISZERO PUSH2 0x1E66 JUMPI DUP5 DUP10 ADD MLOAD PUSH2 0x1E62 PUSH1 0x1F DUP10 AND DUP3 PUSH2 0x1D6F JUMP JUMPDEST DUP4 SSTORE POP JUMPDEST PUSH1 0x1 PUSH1 0x2 DUP9 MUL ADD DUP9 SSTORE POP POP POP JUMPDEST POP POP POP POP POP POP JUMP JUMPDEST PUSH32 0x446F63756D656E7420697320616C726561647920766572696669656400000000 PUSH1 0x0 DUP3 ADD MSTORE POP JUMP JUMPDEST PUSH1 0x0 PUSH2 0x1EB1 PUSH1 0x1C DUP4 PUSH2 0x1A50 JUMP JUMPDEST SWAP2 POP PUSH2 0x1EBC DUP3 PUSH2 0x1E7B JUMP JUMPDEST PUSH1 0x20 DUP3 ADD SWAP1 POP SWAP2 SWAP1 POP JUMP JUMPDEST PUSH1 0x0 PUSH1 0x20 DUP3 ADD SWAP1 POP DUP2 DUP2 SUB PUSH1 0x0 DUP4 ADD MSTORE PUSH2 0x1EE0 DUP2 PUSH2 0x1EA4 JUMP JUMPDEST SWAP1 POP SWAP2 SWAP1 POP JUMP JUMPDEST PUSH1 0x0 PUSH1 0x40 DUP3 ADD SWAP1 POP PUSH2 0x1EFC PUSH1 0x0 DUP4 ADD DUP6 PUSH2 0x1A9A JUMP JUMPDEST PUSH2 0x1F09 PUSH1 0x20 DUP4 ADD DUP5 PUSH2 0x162D JUMP JUMPDEST SWAP4 SWAP3 POP POP POP JUMP INVALID LOG2 PUSH5 0x6970667358 0x22 SLT KECCAK256 0xCF 0xE6 PUSH25 0x81B091116B99C0F6076F5D47613BFF384435C7E8D2F455203A LT 0xBF SWAP15 PUSH32 0x64736F6C63430008180033000000000000000000000000000000000000000000 "
        },
        "methodIdentifiers": {
          "DEFAULT_ADMIN_ROLE()": "a217fddf",
          "INDIVIDUAL_ROLE()": "4fe664e3",
          "ISSUING_AUTHORITY_ROLE()": "14122cda",
          "VERIFYING_AUTHORITY_ROLE()": "d602bc33",
          "addIndividual(address)": "56fb8928",
          "addIssuingAuthority(address)": "3bff2299",
          "addVerifyingAuthority(address)": "7ce414c1",
          "documents(uint256)": "c2ed2b05",
          "getDocument(uint256)": "3f9b250a",
          "getIndividualDocuments(address)": "126151e1",
          "getMyDocuments()": "9111976e",
          "getRoleAdmin(bytes32)": "248a9ca3",
          "grantRole(bytes32,address)": "2f2ff15d",
          "hasRole(bytes32,address)": "91d14854",
          "individualDocuments(address,uint256)": "0d126766",
          "issueDocument(string,address,string)": "6072b021",
          "mintToken()": "2004ffd9",
          "removeRole(bytes32,address)": "f6ba0007",
          "renounceRole(bytes32,address)": "36568abe",
          "revokeRole(bytes32,address)": "d547741f",
          "supportsInterface(bytes4)": "01ffc9a7",
          "verifyDocument(uint256)": "6dda61d9"
        }
      }
    }
  }
}